:103800000C942E1C0C94491C0C94491C0C94491CBF
:103810000C94491C0C94491C0C94491C0C94491C94
:103820000C94491C0C94491C0C94491C0C94491C84
:103830000C94491C0C94491C0C94491C0C94491C74
:103840000C94491C0C94491C0C94491C0C94491C64
:103850000C94491C0C94491C0C94491C11241FBE47
:10386000CFEFD4E0DEBFCDBF11E0A0E0B1E0E4E7F0
:10387000FCE302C005900D92A635B107D9F711E01F
:10388000A6E5B1E001C01D92AC3DB107E1F70C9493
:10389000CF1C0C94001C1F93DC01609158017091A7
:1038A000590183E0FB0180935700E89507B600FCBF
:1038B000FDCF1092DB0150E011E0252F3327FD01F1
:1038C000E20FF31F408181819927982F8827840F69
:1038D000911D0C01F90110935700E89511245E5FCA
:1038E0005093DB01503849F785E0FB018093570086
:1038F000E89507B600FCFDCF1F91089581E1809304
:103900005700E895E0E0F0E0099508958093C6003F
:103910008091C00086FFFCCF8091C00080648093BE
:10392000C00008958091C00087FFFCCF8091C60041
:1039300099270895CF93DF93EC0103C021960E944D
:10394000861C88818823D1F78DE00E94861C8AE03E
:103950000E94861CDF91CF910895FC0150E820E081
:1039600030E061E270E180819927982F88278227D3
:10397000932748E09C01220F331F97FF02C02627A0
:1039800037274150C901B1F7515011F03196EBCFB3
:10399000832F99278093DA01209357010895FF928E
:1039A0000F931F93CF93DF93F89488E190E02EE07C
:1039B0000FB6F894A895809360000FBE2093600026
:1039C00082E49FE0909389008093880010928000A9
:1039D0008DE08093810080E281B91092C50089E179
:1039E0008093C4001092C00088E18093C10086E0FB
:1039F0008093C20088E091E00E949A1C10925701C7
:103A000015E0A895B19B11C0B19A80915701813002
:103A100011F182B190E2892782B9115031F48EE11F
:103A200091E00E949A1C0E947E1C8091C00087FF3A
:103A3000E8CF8091C60020915701E22FFF27E05088
:103A4000FF4F9081891721F42F5F20935701D9CF21
:103A500010925701D6CF87E291E00E949A1C18E29B
:103A6000B19B10C0B19A83E40E94861C82B190E29F
:103A7000892782B9115031F48EE191E00E949A1C9D
:103A80000E947E1CA8958091C00087FFE9CF80919D
:103A9000C600813029F710928100109256011092D1
:103AA00059011092580100E0FF24F3948091C00066
:103AB00087FFFCCF8091C6009927282F8093DA01D9
:103AC0008091C00087FFFCCF8091C60080958093D5
:103AD0005701F21609F0A0C0F81609F09DC09091A8
:103AE000560120E08091C00087FFFCCF8091C60086
:103AF000E92FFF27E65AFE4F80832F5F9F5F203814
:103B000089F7909356018091C00087FFFCCF809188
:103B1000C600C82FDD278091C00087FFFCCF109121
:103B2000C600892F992786529F4F0E94AD1C809115
:103B3000DA018C1709F070C080915701811709F0E4
:103B40006BC0809158019091590180509843B0F01A
:103B50001AC08AED91E0821B91090E944B1C809152
:103B600058019091590180589F4F9093590180932B
:103B7000580180915601805880935601209156013A
:103B8000222339F702C010925601609158017091BA
:103B9000590188E361307807A8F581E180935700E7
:103BA000E89581E0809357011092DB0150E020E01E
:103BB00030E0A22FBB27CB018A0F9B1F805890407B
:103BC000FC019491A65ABE4F8C91981741F4522F44
:103BD0005F5F2F5F3F4F20383105D9F1EACF509317
:103BE000DB011092570185E10E94861C0F5F8091D6
:103BF00058019091590180589040909359018093B9
:103C0000580104C086E00E94861C00E0A89582B19D
:103C100090E2892782B904C085E10E94861C0F5F6B
:103C2000043020F086E00E94861C0EC08091C00007
:103C300087FFFCCF8091C600843009F036CF86E044
:103C40000E94861C002341F089E491E00E949A1CA6
:103C5000FFCF5093DB01D6CF89E391E00E949A1CFD
:103C60000E947E1C80E090E0DF91CF911F910F9128
:043C7000FF90089524
:103C7400640E1C39142857AA77616974696E672029
:103C8400666F722070617373776F72642E0074694B
:103C94006D656F75742E0077616974696E6720664F
:103CA4006F7220646174612E0075706461746520A4
:103CB400737563636573732E007570646174652036
:063CC4006661696C2E0030
:0400000300003800C1
:00000001FF
