:100000000C9442000C945D000C945D000C945D0017
:100010000C9453030C942D030C94DB030C945D009F
:100020000C945D000C945D000C9407030C94DA02B0
:100030000C945D000C9481030C94B2030C945D004D
:100040000C945D000C945D000C945D000C945D00BC
:100050000C945D003D2220092C0D0A006D6F746F19
:10006000720000000000737065656400000000000D
:10007000616E676C65000000000000000000000079
:100080000000000011241FBECFE5D8E0DEBFCDBFC9
:1000900010E0A0E6B0E0E4E2F1E102C005900D92CC
:1000A000A43BB107D9F713E0A4EBB0E001C01D9267
:1000B000A63CB107E1F70C9433040C9400000097C0
:1000C00011F00197FCCF089599278230910581F0B6
:1000D000833091052CF4009779F1019739F02CC009
:1000E00084309105F9F0059711F126C081E001C037
:1000F00082E08093BD008093BE0081E090E0A0E0AC
:10010000B0E08093CB009093CC00A093CD00B0934F
:10011000CE008093CF009093D000A093D100B093F5
:10012000D200089581E08093BD0082E0E4CF82E0B8
:100130008093BD0081E0DFCF1092BD001092BE0021
:100140001092CB001092CC001092CD001092CE00F5
:100150001092CF001092D0001092D1001092D200D5
:1001600008950895CF93C8E026E08031920709F4FE
:100170005EC026E08131920720F521E080319207B0
:1001800009F494C021E08131920748F4803191054F
:1001900009F441C08039910509F47FC087C024E08B
:1001A0008031920709F43BC024E08131920720F4AA
:1001B00080519240C1F17AC08059944009F471C0D5
:1001C00075C02AE08031920781F12AE081319207DF
:1001D00088F428E08039920709F461C028E0813969
:1001E000920720F480519840C1F060C0805199403E
:1001F00011F15CC02CE08039920709F454C02CE066
:100200008139920720F480519C4059F04FC08051B1
:100210009E4079F04BC0C0E049C0C1E047C0C2E099
:1002200045C0C3E043C0C4E041C0C5E03FC0C6E034
:100230003DC0C7E03BC080E00E9464008BE690E0D8
:100240000E9424064AE06091B5007091B60080914A
:10025000B7009091B8000E9456061092B500109217
:10026000B6001092B7001092B80089E790E00E94A3
:1002700024064AE06091B9007091BA008091BB00F9
:100280009091BC000E9456061092B9001092BA00DC
:100290001092BB001092BC0009C081E005C082E052
:1002A00003C084E001C085E00E946400EC2FFF27BA
:1002B000EE59FF4F808199279093D1018093D0010F
:1002C0009093CF018093CE01CF910895FF920F9329
:1002D0001F93CF93DF9364ED70E0CB010E94A406DF
:1002E000F82E87E890E00E9424068F2D805D0E9402
:1002F0001E068AE20E941E0684ED90E00E942406FB
:100300008F2D992782309105C9F0833091051CF417
:10031000019721F093C0039781F190C084ED90E0A4
:100320000E9489078093D300282F882321F0215031
:100330002093D30087C08093D30084C084ED90E0E5
:100340000E948907E82F893010F0E9E001C081118F
:10035000E1508091D300C82FDD27DE01AC0FBD1F17
:10036000A253BE4FFF27EE59FF4F808199278D93EF
:100370009C93892B09F066C032C08091D300C82FAE
:10038000DD278E01000F111F000F111F05531F4F96
:1003900084ED90E00E9489079C01442737FD409539
:1003A000542FF801208331834283538357FF12C0B7
:1003B000FE01E354FF4F82E0808366277727CB015D
:1003C000621B730B840B950BF8016083718382832E
:1003D000938318C0211531054105510521F4C354FB
:1003E000DF4F18822FC012161306140615062CF4C0
:1003F000FE01E354FF4F81E08083F8016081718149
:10040000828193816230710581059105DCF024E6DB
:1004100030E040E050E00E943D08DC01CB01F801F3
:1004200080839183A283B383CC0FDD1FC253DE4F41
:100430008091670099278883998304C081E990E0BF
:100440000E942406FFEFFF1609F045CF80E090E000
:10045000DF91CF911F910F91FF900895CF92DF927E
:10046000EF92FF920F931F93CF93DF93182F83E0A8
:100470000E948106012F1127F801E05AFF4F808169
:100480000E949606EC010197C19710F4C0E0D0E0FD
:10049000F801E354FF4F8081882351F4CE01892F66
:1004A0009927869580FF04C0C095D095D37021967A
:1004B000F801E354FF4F8081813079F4CE01892F18
:1004C000992786959C012170307080FF05C0C095EA
:1004D000D095D370219601C0E901F801E354FF4F94
:1004E0008081823041F4CE01892F9927869580FF43
:1004F00002C0C0E0D0E06801CC0CDD1CCC0CDD1CDF
:1005000095EBE92E90E0F92EEC0CFD1CCE01AA270C
:1005100097FDA095BA2FF701208131814281538147
:10052000280F391F4A1F5B1F208331834283538367
:1005300003541F4FF8018081882331F06AE0CE0117
:100540000E9437061092BF00F601E553FF4F20814D
:1005500031814281538122303105410551050CF131
:10056000F80180818823E9F0F70180819181A281DF
:10057000B38182179307A407B5079CF0F801108296
:1005800084EA90E00E9424064AE0F70160817181CC
:10059000828193810E945606F70110821182128295
:1005A0001382DF91CF911F910F91FF90EF90DF9019
:1005B000CF9008951F920F920FB60F9211242F9390
:1005C0003F934F935F936F937F938F939F93AF93DB
:1005D000BF93EF93FF9380E00E942E028091CE01A3
:1005E0008CBF6091BD0081E00E942A05FF91EF91D0
:1005F000BF91AF919F918F917F916F915F914F913B
:100600003F912F910F900FBE0F901F9018951F9242
:100610000F920FB60F9211242F933F934F935F9336
:100620006F937F938F939F93AF93BF93EF93FF93BA
:1006300060E081E00E942A05FF91EF91BF91AF91A8
:100640009F918F917F916F915F914F913F912F91EA
:100650000F900FBE0F901F9018951F920F920FB61C
:100660000F9211242F933F934F935F936F937F9338
:100670008F939F93AF93BF93EF93FF9360E082E0DC
:100680000E942A05FF91EF91BF91AF919F918F91A9
:100690007F916F915F914F913F912F910F900FBE7E
:1006A0000F901F9018951F920F920FB60F92112462
:1006B0002F933F934F935F936F937F938F939F936A
:1006C000AF93BF93EF93FF9381E00E942E0280913E
:1006D000D001809583BD6091BE0082E00E942A0512
:1006E000FF91EF91BF91AF919F918F917F916F910A
:1006F0005F914F913F912F910F900FBE0F901F90E0
:1007000018951F920F920FB60F9211242F938F936B
:100710009F93EF93FF932CB18091C0009091C10003
:10072000FC01EC52FF4F2083FC013196F093C10095
:10073000E093C0002D3011F02A3051F4EC52FF4FFD
:1007400010821092C1001092C00081E08093B4002A
:10075000FF91EF919F918F912F910F900FBE0F906E
:100760001F9018951F920F920FB60F9211242F937E
:100770003F934F935F936F937F938F939F93AF9329
:10078000BF93EF93FF930E94FE05882311F08CB96D
:1007900001C05598FF91EF91BF91AF919F918F91BB
:1007A0007F916F915F914F913F912F910F900FBE6D
:1007B0000F901F9018951F920F920FB60F92112451
:1007C0002F933F934F935F936F937F938F939F9359
:1007D000AF93BF93EF93FF9326B537B5F8948EB5DB
:1007E00080648EBDC9010E946205009729F00E94B5
:1007F000B2008EB58F7B8EBD7894FF91EF91BF9143
:10080000AF919F918F917F916F915F914F913F91A8
:100810002F910F900FBE0F901F9018950E940E05FC
:100820000E9459050E9418050E94A40583E00E94B9
:1008300081061092B4001092D30061E070E021E0D4
:1008400030E040E050E0ABECB0E081E0EEECF1E015
:10085000619371932D933D934D935D93815087FFE9
:10086000F7CF78940895CCE5D8E0DEBFCDBF6E0118
:100870000894C11CD11C83E0E0EBF0E0D6010190AC
:100880000D928A95E1F70E940E04FF24EF2C80B3AD
:10089000982F987083FD1DC0E394B2E0BE150CF450
:1008A000E92E03EF11E080E797E10E945F0001501D
:1008B000104017FFF8CFE092BD0081E090E0A0E08B
:1008C000B0E08093CB009093CC00A093CD00B09388
:1008D000CE0083B3982F947082FD1DC0F39482E004
:1008E0008F150CF4F92E03EF11E080E797E10E94D9
:1008F0005F000150104017FFF8CFF092BE0081E07A
:1009000090E0A0E0B0E08093CF009093D000A0935F
:10091000D100B093D2008091B400882391F00E945E
:1009200066011092B4008091D300E82FFF27EE0FEC
:10093000FF1FEE0FFF1FEB54FF4F10821182128238
:100940001382E0E01E2F1F5FFF27E354FF4F8081DB
:10095000F601E80FF11D612F80810E94B70484EF3A
:1009600091E00E945F00E12F123060F390CF992751
:1009700087FD90958630910509F441C08730910537
:100980008CF48230910559F1833091052CF4009755
:1009900011F1019711F137C08430910521F10597CC
:1009A00024F51FC08930910531F18A30910534F466
:1009B00087309105E1F00897E1F025C08236910576
:1009C000F1F0833691051CF40A97D9F01CC08636E5
:1009D000910599F018C08FE315C086E013C08BE530
:1009E00011C08FE40FC086E60DC08DE60BC087E016
:1009F00009C08FE707C087E605C081E703C08CE721
:100A000001C080E888BB613019F4AB98AC9A0895B6
:100A1000623011F4AC98AB9A089508958FEF87BBBC
:100A200084B3886184BB8B98A298939AAA9A0895FC
:100A300083B78C6483BF90E89CBF85B58E6485BD09
:100A400093BD89B7836C89BF8AB3806F8ABB8D9A47
:100A50008C9A0895382F862F99278130910531F08F
:100A6000823091054CF0029721F006C020E09FEF04
:100A700005C02FEF90E002C090E0292F313059F4EB
:100A8000959A8BB38F7C8BBB20719072292B8BB383
:100A9000822B8BBB0895323051F4949A8BB38F73B1
:100AA0008BBB20749078292B8BB3822B8BBB089542
:100AB00008958E988EB585688EBD89B7806289BF8E
:100AC00078940895BC018091C2009091C3009B016D
:100AD000281B390B2A30310520F12632310558F018
:100AE0001092C4001092C3001092C2001092C6006F
:100AF0001092C50016C08091C5009091C60040912B
:100B0000C4002A31310520F0880F991F816002C08E
:100B1000880F991F9093C6008093C5004F5F409344
:100B2000C4007093C3006093C2008091C4008C30F5
:100B300039F41092C4008091C5009091C6000895C8
:100B400080E090E00895089586E880BD88E98AB93C
:100B500087E689B910BC1092C8001092C7000895AA
:100B6000982F8091C8008A3F80F4E82FFF27EE522B
:100B7000FE4F90838F5F8093C800E82FFF27EE52CF
:100B8000FE4F108280E090E0089582E090E00895AA
:100B900008958091C8008823A1F09091D201282F58
:100BA00021502093C8002F5F30E0E32FFF27EE5243
:100BB000FE4F818180833F5F2150B9F7892F9927AC
:100BC000089580E090E008950895982F8091C700DF
:100BD0008B3F18F082E090E00895E82FFF27E45360
:100BE000FD4F90838F5F8093C700E82FFF27E4536A
:100BF000FD4F108280E090E0089508958091C70035
:100C00008823A1F0282F21502093C7002F5F9091B7
:100C1000CC0230E0E32FFF27E453FD4F8181808336
:100C20003F5F2150B9F7892F9927089580E090E020
:100C3000089508950E94C905992708950E94E50521
:100C4000559A80E090E00895CF93DF93EC0188817E
:100C5000882321F089910E941E06F9CF8DE00E9421
:100C60001E068AE00E941E06DF91CF910895CF9361
:100C7000DF93CDB7DEB764970FB6F894DEBF0FBE33
:100C8000CDBF262F3327A901BE016F5F7F4F0E9482
:100C9000B607CE0101960E94240664960FB6F8941A
:100CA000DEBF0FBECDBFDF91CF910895EF92FF92CF
:100CB0000F931F93CF93DF93CDB7DEB7A8970FB6EF
:100CC000F894DEBF0FBECDBF7B018C01842F992726
:100CD0009C01AE014F5F5F4FC801B7010E94DB0767
:100CE000CE0101960E942406A8960FB6F894DEBFA6
:100CF0000FBECDBFDF91CF911F910F91FF90EF906D
:100D0000089597EC96B98295880F880F807C87B9F3
:100D10008AB3807F8ABB0895882319F086B1886CD6
:100D200002C086B1877B86B90895089596B19F75F4
:100D300096B997B1982B97B9379A369A349BFECFCC
:100D400084B195B137980895CF92DF92EF92FF92D8
:100D50000F931F93CF937C0151E0CC24DC2C4C2DBE
:100D6000E091C900F091CA00EE0DFF1D808188233B
:100D700009F4C1C030E0852F99278230910579F1BF
:100D8000833091051CF4019759F0ABC08330910575
:100D900009F45AC0049709F47BC0A3C052E072C0A2
:100DA000232FECE5F0E09491992309F49AC0E091A7
:100DB000C900F091CA00EE0DFF1D80813AE089174D
:100DC00069F32F5F239FF0011124E45AFF4F9491A0
:100DD0009923A9F786C031E017C0C22E30C0E09138
:100DE000C900F091CA00EE0DFF1D9081232FE4E5AC
:100DF000F0E08491882341F0981769F32F5FE22F88
:100E0000FF27EC5AFF4FF5CFE42FFF27332309F4D8
:100E100064C0EE0DFF1D10829D3309F062C0C081D9
:100E20000CE510E0B801C7010E941A082C2F2F5FB3
:100E3000892B99F2C22F065F1F4F243098F340E0B0
:100E400053E04FC031E015C0E091C900F091CA00F5
:100E5000EE0DFF1D9081232FE4E5F0E084918823BF
:100E600041F0981779F32F5FE22FFF27EC5AFF4FDD
:100E7000F5CF923221F481E0D82654E040E03323CC
:100E800081F554E0F701908341E02BC031E015C0BB
:100E9000E091C900F091CA00EE0DFF1D9081232F53
:100EA000E4E5F0E08491882341F0981779F32F5F0F
:100EB000E22FFF27EC5AFF4FF5CF923211F481E079
:100EC000D826D11030E0E42FFF27332331F0EE0D88
:100ED000FF1D10828C2D992714C0EE0DFF1D9083ED
:100EE0004F5FE091C900F091CA003196F093CA00BB
:100EF000E093C90039CF1092CA001092C9008FEF59
:100F000090E0CF911F910F91FF90EF90DF90CF90E5
:100F10000895FC0188279927E89421912223F1F074
:100F20002032D9F32930C9F32A30B9F32C30A9F390
:100F30002D3099F3263789F32B3219F02D3221F415
:100F400068942191222351F0203344F02A3334F461
:100F500020530E941208820F911DF3CF8115910535
:100F600021F01EF48095909501960895E62FF72FB5
:100F70002E2F3F2FE8944230CCF04532BCF44A305B
:100F800029F497FB1EF4909581959F4F642F772746
:100F90000E945C08805D8A330CF0895D8193862F06
:100FA000972F009799F716F45DE25193932F822FB4
:100FB00010820C942D08F52FE42FCF93FF93EF931D
:100FC000223054F1253244F5C22FE894CA3049F456
:100FD00097FB3EF490958095709561957F4F8F4F6C
:100FE0009F4F2C2F332744275527FF93EF930E94C1
:100FF0007008EF91FF91605D6A330CF0695D619359
:10100000622F732F842F952F605070408040904046
:1010100041F716F4CDE2C19310828F919F91CF9149
:101020000C942D087AE0979F902D879F802D910D2D
:1010300011240895FB01DC018D910590602D502D48
:101040005062513624F05B3714F460628062861B74
:1010500011F4002089F7990B0895DC01FC0101903F
:101060000020E9F73297AE17BF0730F47C9160811A
:10107000708331976D93F7CF0895629FD001739F6E
:10108000F001829FE00DF11D649FE00DF11D929F24
:10109000F00D839FF00D749FF00D659FF00D992763
:1010A000729FB00DE11DF91F639FB00DE11DF91F87
:1010B000BD01CF0111240895AA1BBB1B51E107C03C
:1010C000AA1FBB1FA617B70710F0A61BB70B881FD8
:1010D000991F5A95A9F780959095BC01CD01089567
:1010E000A1E21A2EAA1BBB1BFD010DC0AA1FBB1F2C
:1010F000EE1FFF1FA217B307E407F50720F0A21B9E
:10110000B30BE40BF50B661F771F881F991F1A940A
:1011100069F760957095809590959B01AC01BD0134
:04112000CF0108955E
:10112400101B7896BEC8D2DCE6F0FA566F6C746178
:1011340067652053554D203100566F6C74616765A7
:101144002053554D203200436F6D6D616E64203A1B
:1011540000436F6D6D616E64206E6F7420666F75F1
:101164006E642000566F6C746167652053554D00A2
:0411740000666200AF
:00000001FF
