:100000000C9442000C945D000C945D000C945D0017
:100010000C945D000C945D000C9466020C945D00E1
:100020000C945D000C945D000C945D000C945D00DC
:100030000C945D000C940C020C943D020C945D0039
:100040000C945D000C945D000C945D000C945D00BC
:100050000C945D003D2220092C0D0A006D6F746F19
:10006000720000000000737065656400000000000D
:10007000616E676C65000000000000000000000079
:100080000000000011241FBECFE5D8E0DEBFCDBFC9
:1000900010E0A0E6B0E0E8E9FDE002C005900D92B6
:1000A000A038B107D9F712E0A0E8B0E001C01D9276
:1000B000A731B107E1F70C94BF020C940000009740
:1000C00011F00197FCCF0895282F332722303105F6
:1000D000B9F0233031053CF421153105A9F0213068
:1000E000310541F034C024303105D9F025303105D7
:1000F00049F12DC081E0809383008093840008C083
:1001000082E08093830011C01092830010928400DB
:1001100030939100209390003093930020939200AD
:10012000089581E08093830082E08093840081E0E1
:1001300090E090939100809390009093930080932F
:100140009200089582E08093830081E0EECF1092C8
:1001500083001092840010929100109290001092EF
:100160009300109292000895089526E0803192073E
:1001700009F485C026E08131920728F521E080311D
:10018000920709F48CC021E08131920748F4803154
:10019000910509F444C08039910509F48AC09FC0D3
:1001A00024E08031920709F44AC024E081319207AB
:1001B00028F48051924009F452C091C08059944073
:1001C00009F47DC08CC02AE08031920709F44FC049
:1001D0002AE08131920790F428E08039920709F4EF
:1001E0006CC028E08139920720F480519840F9F0E2
:1001F00076C08051994009F45AC071C02CE0803912
:10020000920709F45EC02CE08139920720F48051F6
:100210009C40E9F064C080519E40C9F160C080916B
:100220009400E82FFF27EB5EFE4F82E04CC08091E8
:100230009400E82FFF27EB5EFE4F83E044C08091DF
:100240009400E82FFF27EB5EFE4F84E03CC08091D6
:100250009400E82FFF27EB5EFE4F85E034C08091CD
:100260009400E82FFF27EB5EFE4F86E02CC08091C4
:100270009400E82FFF27EB5EFE4F87E024C08091BB
:100280009400E82FFF27EB5EFE4F88E01CC08091B2
:100290009400E82FFF27EB5EFE4F89E014C08091A9
:1002A0009400E82FFF27EB5EFE4F8AE00CC080E051
:1002B00001C081E00E94640012C082E0FBCF84E0B4
:1002C000F9CF85E0F7CF808380919400E82FFF2756
:1002D000EB5EFE4F8081809316018093150181E0D3
:1002E00080938100809382000895DF92EF92FF92C5
:1002F0000F931F93CF93DF9365E970E0CB010E94CA
:100300005605D82E80E690E00E9401058D2D805D77
:100310000E94FB048AE20E94FB0485E990E00E94AF
:1003200001058D2D992782309105E9F083309105E3
:100330001CF4019721F05EC0039751F15BC085E981
:1003400090E00E943B0680939400282F882321F0A0
:1003500021502093940002C08093940080919400D7
:10036000E82FFF2742C080919400082F112785E1D4
:10037000E82E81E0F82EE00EF11E85E990E00E9463
:100380003B06F70180830F571F4F81E0F80130C013
:10039000E0909400CE2DDD278E010C0F1D1F00571D
:1003A0001F4F85E990E00E943B069C01F801808385
:1003B000918397FF0BC0CD57DF4F82E0888388275A
:1003C0009927821B930B808391830DC0009721F4A2
:1003D000CD57DF4F188207C01816190624F4CD57E1
:1003E000DF4F81E08883EE2DFF27EF57FF4F81E03D
:1003F000808304C08AE690E00E940105FFEFDF16CB
:1004000009F07ACF80E090E0DF91CF911F910F91BA
:10041000FF90EF90DF9008951F920F920FB60F920A
:1004200011242F938F939F93EF93FF932CB180917F
:10043000850090918600FC01EB56FF4F2083FC0164
:100440003196F0938600E09385002D3011F02A302C
:1004500051F4EB56FF4F10821092860010928500E7
:1004600081E080938000FF91EF919F918F912F9178
:100470000F900FBE0F901F9018951F920F920FB6FE
:100480000F9211242F933F934F935F936F937F931A
:100490008F939F93AF93BF93EF93FF930E94DB04DF
:1004A000882311F08CB901C05598FF91EF91BF914D
:1004B000AF919F918F917F916F915F914F913F91FC
:1004C0002F910F900FBE0F901F9018951F920F92B3
:1004D0000FB60F9211242F933F934F935F936F9317
:1004E0007F938F939F93AF93BF93EF93FF9326B523
:1004F00037B5F8948EB580648EBDC9010E943F0463
:10050000009729F00E94B5008EB58F7B8EBD789440
:10051000FF91EF91BF91AF919F918F917F916F91DB
:100520005F914F913F912F910F900FBE0F901F90B1
:100530001895CF93DF930E94E8030E9436040E942F
:10054000F2030E94810481E00E9433051092800032
:10055000109294009AE021E030E0C5E1D1E0A1E8FA
:10056000B0E081E0E0E9F0E01D92999321933193AE
:10057000815087FFF9CF7894DF91CF910895C8E536
:10058000D8E0DEBFCDBF1C821D821E821F824E01BD
:100590000894811C911C83E0EDE7F0E0D401019008
:1005A0000D928A95E1F70E949902CC24BC2C80B36D
:1005B000982F987083FD1AC0B394B2E0BB150CF469
:1005C000B92E03EF11E080E797E10E945F00015030
:1005D000104017FFF8CFB092830081E090E0909335
:1005E00091008093900081E08093810083B3982FE5
:1005F000947082FD1AC0C394E2E0EC150CF4C92E8D
:1006000003EF11E080E797E10E945F000150104086
:1006100017FFF8CFC092840081E090E090939300A0
:100620008093920081E080938200809180008823F3
:1006300071F00E9475011092800080919400E82F63
:10064000FF27EE0FFF1FEC0FFD1F14821582DD2424
:10065000ED2CFF2497012E0D3F1DF901E057FF4FB0
:100660008081918102972CF1DE011496A20FB31FB5
:100670002D913C9111972F5F3F4F2D933C931197F4
:100680004081518182E390E0489FB001499F700D05
:10069000589F700D11242617370759F4F701ED57AD
:1006A000FF4F1082F701EF57FF4F81E080831D92CB
:1006B0001C9287010F571F4FD8018C918823E1F0BE
:1006C000F701EB5EFE4F908184E6989FC0011124F4
:1006D000DD2019F49BBD8ABD05C0B1E0DB1611F425
:1006E00099BD88BDF701ED57FF4F60818D2D8F5F5C
:1006F0000E940404F80110821D2D1F5F63E870E062
:10070000E60EF71ED7018C91F401E80FF11D612F61
:1007100080810E949103D12EB1E0B11708F098CFEB
:1007200046CF992787FD90958630910509F441C001
:10073000873091058CF48230910559F18330910511
:100740002CF4009711F1019711F137C08430910515
:1007500021F1059724F51FC08930910531F18A30C8
:10076000910534F487309105E1F00897E1F025C058
:1007700082369105F1F0833691051CF40A97D9F081
:100780001CC08636910599F018C08FE315C086E02D
:1007900013C08BE511C08FE40FC086E60DC08DE657
:1007A0000BC087E009C08FE707C087E605C081E777
:1007B00003C08CE701C080E888BB613019F4AB98B6
:1007C000AC9A0895623011F4AC98AB9A08950895EC
:1007D0008FEF87BB84B3886184BB8B98A298939A70
:1007E000AA9A08958FB5836A8FBD8EB58D608EBD30
:1007F0008FE790E09BBD8ABD99BD88BD8AB3806FAD
:100800008ABB8D9A8C9A0895382F862F992781302C
:10081000910549F08230910574F08230910531F0F4
:10082000039739F008C020E09FEF07C02FEF90E05A
:1008300004C09FEF01C090E0292F313051F48BB3F9
:100840008F7C8BBB20719072292B8BB3822B8BBB3F
:100850000895323049F48BB38F738BBB207490783A
:10086000292B8BB3822B8BBB089508958E988EB560
:1008700085688EBD89B7806289BF78940895BC0170
:1008800080918700909188009B01281B390B2A30AA
:10089000310520F12632310558F01092890010926E
:1008A00088001092870010928B0010928A0016C068
:1008B00080918A0090918B00409189002A31310506
:1008C00020F0880F991F816002C0880F991F9093B4
:1008D0008B0080938A004F5F40938900709388005B
:1008E00060938700809189008C3039F410928900E0
:1008F00080918A0090918B00089580E090E00895A7
:10090000089586E880BD88E98AB987E689B910BC70
:1009100010928D0010928C000895982F80918D0078
:1009200087FD10C0E82FFF27E95EFE4F90838F5FA1
:1009300080938D00E82FFF27E95EFE4F108280E054
:1009400090E0089582E090E00895089580918D00F0
:100950008823A1F090911701282F215020938D001A
:100960002F5F30E0E32FFF27E95EFE4F8181808318
:100970003F5F2150B9F7892F9927089580E090E0D3
:1009800008950895982F80918C00813818F082E0A6
:1009900090E00895E82FFF27E956FE4F90838F5F80
:1009A00080938C00E82FFF27E956FE4F108280E0ED
:1009B00090E00895089580918C008823A1F0282F5D
:1009C000215020938C002F5F9091970130E0E32F0E
:1009D000FF27E956FE4F818180833F5F2150B9F7A1
:1009E000892F9927089580E090E0089508950E9446
:1009F000A604992708950E94C204559A80E090E0C9
:100A00000895CF93DF93EC018881882321F08991A9
:100A10000E94FB04F9CF8DE00E94FB048AE00E9453
:100A2000FB04DF91CF910895CF93DF93CDB7DEB76D
:100A300064970FB6F894DEBF0FBECDBF262F3327C5
:100A4000A901BE016F5F7F4F0E946806CE0101962B
:100A50000E94010564960FB6F894DEBF0FBECDBFAD
:100A6000DF91CF91089597EC96B98295880F880F02
:100A7000807C87B98AB3807F8ABB0895882319F068
:100A800086B1886C02C086B1877B86B908950895C7
:100A900096B19F7596B997B1982B97B9379A369AB0
:100AA000349BFECF84B195B137980895CF92DF92F1
:100AB000EF92FF920F931F93CF937C0151E0CC24D0
:100AC000DC2C4C2DE0918E00F0918F00EE0DFF1D7F
:100AD0008081882309F4C1C030E0852F99278230B6
:100AE000910579F1833091051CF4019759F0ABC061
:100AF0008330910509F45AC0049709F47BC0A3C060
:100B000052E072C0232FECE5F0E09491992309F4B0
:100B10009AC0E0918E00F0918F00EE0DFF1D808154
:100B20003AE0891769F32F5F239FF0011124E45AFB
:100B3000FF4F94919923A9F786C031E017C0C22EC8
:100B400030C0E0918E00F0918F00EE0DFF1D90817E
:100B5000232FE4E5F0E08491882341F0981769F3AE
:100B60002F5FE22FFF27EC5AFF4FF5CFE42FFF272F
:100B7000332309F464C0EE0DFF1D10829D3309F08C
:100B800062C0C0810CE510E0B801C7010E94950663
:100B90002C2F2F5F892B99F2C22F065F1F4F243015
:100BA00098F340E053E04FC031E015C0E0918E0073
:100BB000F0918F00EE0DFF1D9081232FE4E5F0E012
:100BC0008491882341F0981779F32F5FE22FFF2754
:100BD000EC5AFF4FF5CF923221F481E0D82654E051
:100BE00040E0332381F554E0F701908341E02BC0CE
:100BF00031E015C0E0918E00F0918F00EE0DFF1DE9
:100C00009081232FE4E5F0E08491882341F0981748
:100C100079F32F5FE22FFF27EC5AFF4FF5CF923287
:100C200011F481E0D826D11030E0E42FFF273323E0
:100C300031F0EE0DFF1D10828C2D992714C0EE0DA2
:100C4000FF1D90834F5FE0918E00F0918F003196F1
:100C5000F0938F00E0938E0039CF10928F001092A6
:100C60008E008FEF90E0CF911F910F91FF90EF904A
:100C7000DF90CF900895FC0188279927E89421916F
:100C80002223F1F02032D9F32930C9F32A30B9F305
:100C90002C30A9F32D3099F3263789F32B3219F034
:100CA0002D3221F468942191222351F0203344F015
:100CB0002A3334F420530E948D06820F911DF3CF06
:100CC0008115910521F01EF4809590950196089567
:100CD000E62FF72F2E2F3F2FE8944230CCF04532ED
:100CE000BCF44A3029F497FB1EF4909581959F4FF0
:100CF000642F77270E94B806805D8A330CF0895DE7
:100D00008193862F972F009799F716F45DE2519300
:100D1000932F822F10820C94A8067AE0979F902D33
:100D2000879F802D910D11240895FB01DC018D9189
:100D30000590602D502D5062513624F05B3714F42D
:100D400060628062861B11F4002089F7990B089578
:100D5000DC01FC0101900020E9F73297AE17BF07D4
:100D600030F47C916081708331976D93F7CF089553
:100D7000AA1BBB1B51E107C0AA1FBB1FA617B707C1
:100D800010F0A61BB70B881F991F5A95A9F78095DD
:080D90009095BC01CD0108950E
:100D9800436F6D6D616E64203A00436F6D6D616ED7
:100DA80064206E6F7420666F756E64200000666242
:00000001FF
