:100000000C942A000C9445000C9445000C94450077
:100010000C9445000C9445000C9445000C9445004C
:100020000C9445000C9445000C9445000C9445003C
:100030000C9445000C9447000C946C000C94450003
:100040000C9445000C9445000C9445000C9445001C
:100050000C94450011241FBECFE5D8E0DEBFCDBF14
:1000600010E0A0E6B0E0ECE0F3E002C005900D92F5
:10007000A837B107D9F710E0A8E7B0E001C01D929A
:10008000AA3BB107E1F70C9492000C9400001F9278
:100090000F920FB60F9211242F933F934F935F93BC
:1000A0006F937F938F939F93AF93BF93EF93FF9340
:1000B0008CB10E94BD00FF91EF91BF91AF919F91D4
:1000C0008F917F916F915F914F913F912F910F9001
:1000D0000FBE0F901F9018951F920F920FB60F92A0
:1000E00011242F933F934F935F936F937F938F933D
:1000F0009F93AF93BF93EF93FF930E9409018111E8
:100100008CB9FF91EF91BF91AF919F918F917F91AA
:100110006F915F914F913F912F910F900FBE0F9074
:100120001F901895C8E5D8E0DEBFCDBF0E94B00093
:10013000789480E690E00E942E014AE050E0BE01F3
:100140006F5F7F4F86E890E00E944101CE010196EB
:100150000E942E018DE00E9429010E942501FBCF03
:1001600086E880BD88EB8AB987E689B910BC11BAE8
:1001700010927900109278000895982F809179005C
:10018000803280F4E82FFF27E658FF4F90838F5F7F
:1001900080937900E82FFF27E658FF4F108280E018
:1001A00090E0089582E090E008958091790088239E
:1001B000A9F090917A00815080937900282F30E047
:1001C000222349F0E32FFF27E658FF4F81818083E8
:1001D0003F5F2150F5CF892F9927089580E090E067
:1001E0000895982F80917800813218F082E090E095
:1001F0000895E82FFF27E656FF4F90838F5F809387
:100200007800E82FFF27E656FF4F108280E090E04D
:100210000895809178008823A9F081508093780018
:1002200090919A00282F30E0222349F0E32FFF27F6
:10023000E656FF4F818180833F5F2150F5CF892FA4
:100240009927089580E090E008950E94D5009927AD
:1002500008950E94F10080E090E00895CF93DF932D
:10026000EC018881882321F089910E942901F9CF2E
:100270008DE00E9429018AE00E942901DF91CF913F
:100280000895FB019F01E8944230C4F04532B4F474
:100290004A3029F497FB1EF4909581959F4F642F67
:1002A00077270E947201805D8A330CF0895D81930B
:1002B000CB010097A1F716F45DE251931082C901BA
:1002C0000C946201DC01FC0101900020E9F73297F7
:1002D000AE17BF0730F47C916081708331976D93C6
:1002E000F7CF0895AA1BBB1B51E107C0AA1FBB1F74
:1002F000A617B70710F0A61BB70B881F991F5A95B2
:0C030000A9F780959095BC01CD010895EF
:10030C00537472696E672073746F72656420696EC2
:08031C00205352414D0A00007C
:00000001FF
