:107000000C942A380C9445380C9445380C94453827
:107010000C9445380C9445380C9445380C944538FC
:107020000C9445380C9445380C9445380C944538EC
:107030000C9445380C9445380C9445380C944538DC
:107040000C9445380C9445380C9445380C944538CC
:107050000C94453811241FBECFE5D8E0DEBFCDBF6C
:1070600010E0A0E6B0E0E6E9F5E702C005900D9279
:10707000A63AB107D9F711E0A6EAB0E001C01D9227
:10708000AC32B107E1F70C9417390C940038813415
:1070900018F48053992708958753992708959F924C
:1070A000AF92BF92CF92DF92EF92FF920F931F9316
:1070B000CF93EE24AA24BB2465010E94D4398A33DD
:1070C00019F081E090E0A8C00E94D4390E944738AE
:1070D000F82EFF0CFF0CFF0CFF0C0E94D4390E940D
:1070E0004738F82A0E94D4390E944738C82FC295E1
:1070F000C07F0E94D4390E944738C82B0E94D439DF
:107100000E944738182F1295107F0E94D4390E9490
:107110004738182B0E94D4390E944738982E990C72
:10712000990C990C990C0E94D4390E944738982ADE
:10713000CF0DC10FC90D00E00F15A8F40E94D4397E
:107140000E944738182F1295107F0E94D4390E9450
:107150004738182BEE2DFF27E855FF4F1083E39497
:10716000C10F0F5FE9CF0E94D4390E944738182F12
:107170001295107F0E94D4390E944738182B0E9424
:10718000D439C10F19F082E090E046C0992059F03F
:10719000E7FC09C08FEFEE2DFF27E855FF4F8083F6
:1071A000E394E7FEF8CFE7FE32C000E0E02E41E0D6
:1071B000E02FFF27E855FF4F808199272181332752
:1071C000322F2227822B932B0C01F501409357007D
:1071D000E895112482E090E0A0E0B0E0A80EB91E8E
:1071E000CA1EDB1E0E5F07FFE3CF25E0C5018058F6
:1071F0009040FC0120935700E89507B600FCFDCFB6
:1072000081E180935700E8958AE20E94D039992065
:1072100009F453CF80E090E0CF911F910F91FF9040
:10722000EF90DF90CF90BF90AF909F900895CFE503
:10723000D8E0DEBFCDBF10E0F89481E08BBF8BB704
:1072400082608BBF80EA91E00E94C6395F9B13C0C9
:107250008CB1893681F411E080E690E00E94D93942
:1072600080E30E94D03981E30E94D03988E690E023
:107270000E94D93902C0112349F30E94BD398823E5
:1072800009F46AC00E94D43999278537910529F0FD
:107290008837910509F451C05BC010922801109203
:1072A000290110922A0110922B0123E080912801DC
:1072B00090912901FC0120935700E89507B600FC46
:1072C000FDCF8091280190912901A0912A01B091D0
:1072D0002B0180589F4FAF4FBF4F80932801909351
:1072E0002901A0932A01B0932B0180509047A04020
:1072F000B040E0F2109228011092290110922A0168
:1073000010922B018BE690E00E94D9390E944F38F1
:10731000C82F882369F081E790E00E94D9398C2F2B
:107320009927AA27BB27BC01CD010E94F23914C0BE
:1073300086E790E00E94D93912C081E08BBF8BB7FD
:107340008D7F8BBFE091A600F091A700099504C046
:1073500089E790E00E94D939112309F08ECF81E0AE
:107360008BBF8BB78D7F8BBFE091A600F091A700FC
:10737000099580E090E00C94CA3A8BB1992787FD7B
:1073800090958827990F881F992708959C01892F28
:10739000992780BD29B988E18AB986E880BD08951A
:1073A0005D9BFECF8CB908955F9BFECF8CB1992772
:1073B00008951F93CF93DF93EC0110E08881882319
:1073C00069F0FE01E10FF11D80810E94D0391F5F3D
:1073D000FE01E10FF11D8081882399F7DF91CF91A4
:1073E0001F9108958F929F92BF92CF92DF92EF925A
:1073F000FF920F931F93CF93DF93CDB7DEB72A97FA
:107400000FB6F894DEBF0FBECDBF6B017C0197FFB6
:107410000BC08DE20E94D039F094E094D094C094D7
:10742000C11CD11CE11CF11CBB244E010894811C21
:10743000911C84010B0D111DC701B6012AE030E03B
:1074400040E050E00E948D3ADC01CB01F8018083DE
:10745000C701B6012AE030E040E050E00E948D3ADA
:1074600069017A01B394211531054105510509F7E8
:10747000BB2051F0BA94F401EB0DF11D8081805DC9
:107480000E94D039BB20B1F72A960FB6F894DEBF20
:107490000FBECDBFDF91CF911F910F91FF90EF9065
:1074A000DF90CF90BF909F908F900895FF920F93A1
:1074B0001F93CF93DF93CDB7DEB760970FB6F894E5
:1074C000DEBF0FBECDBFF82E8E010F5F1F4FD8015C
:1074D000E5E9F0E080E101900D928150E1F78F2D18
:1074E00082958F70F801E80FF11D80810E94D039DC
:1074F000EF2DFF27EF70F070E00FF11F80810E94E9
:10750000D03960960FB6F894DEBF0FBECDBFDF91C5
:10751000CF911F910F91FF90089597FB092E05269B
:107520000ED057FD04D014D00AD0001C38F450956A
:107530004095309521953F4F4F4F5F4F0895F6F797
:1075400090958095709561957F4F8F4F9F4F0895CF
:10755000A1E21A2EAA1BBB1BFD010DC0AA1FBB1F57
:10756000EE1FFF1FA217B307E407F50720F0A21BC9
:10757000B30BE40BF50B661F771F881F991F1A9436
:1075800069F760957095809590959B01AC01BD0160
:06759000CF010895FFCFBA
:10759600426F6F74205620000D0A0052454144592F
:1075A6000045525220004F4B0075202D2055706C1F
:1075B6006F6164206F722078202D20457865637591
:1075C60074650D0A00303132333435363738394177
:0675D6004243444546005B
:040000030000700089
:00000001FF
