:1000000012C02BC02AC029C028C027C026C025C0C6
:1000100024C023C022C04BC020C020C01EC01DC0B1
:100020001CC01BC01AC011241FBECFE5D4E0DEBF28
:10003000CDBF10E0A0E6B0E0E2E2F1E002C0059042
:100040000D92A238B107D9F710E0A2E8B0E001C0E4
:100050001D92A538B107E1F756C0D2CF1F920F927B
:100060000FB60F9211248F939F93EF93FF93E0911C
:100070008200F09183003196F0938300E093820038
:100080003197809184008150809384008091840016
:10009000882321F08CB1918189238CB9FF91EF9154
:1000A0009F918F910F900FBE0F901F9018951F92E8
:1000B0000F920FB60F9211248F939F939CB190953E
:1000C00085B3892385BB9F918F910F900FBE0F90B1
:1000D0001F901895FC0180918400882359F4F093B7
:1000E0008300E0938200609384008081E82FFF27E3
:1000F0006CB1F1CF089508958AB1887D8AB989B12C
:10010000897189B90895CFE5D4E0DEBFCDBF8EE710
:1001100084BB15BAF1DF789460E280E690E0DADF24
:02012000FBCF13
:1001220053657269616C20446174612066726F6DFF
:1001320020415652207265636569766564232323E4
:020142000000BB
:00000001FF
