:1000000023C03CC03BC03AC039C038C037C036C03E
:1000100035C034C033C05BC07BC030C02FC02EC0E1
:100020002DC02CC02BC0456E746572207465787429
:100030000D0A000D0A596F7520656E74657265644E
:1000400020272573270D0A0011241FBECFE5D4E019
:10005000DEBFCDBF10E0A0E6B0E0E0E1FFE002C00F
:1000600005900D92AA36B107D9F710E0AAE6B0E0E4
:1000700001C01D92A83BB107E1F701C0C1CFCBE49D
:10008000D4E0DEBFCDBFACD086E290E09F938F93EB
:10009000C4D20F900F908E010F5F1F4F1F930F93CD
:1000A00080E690E09F938F93DCD20F900F900F909B
:1000B0000F90892B81F31F930F9383E390E09F931D
:1000C0008F93ABD20F900F900F900F90DDCF1F92B8
:1000D0000F920FB60F9211248F939F93EF93FF937C
:1000E0009CB180916A00E82FFF27EF71F070E5590D
:1000F000FF4F908380916A008F5F80936A00FF9129
:10010000EF919F918F910F900FBE0F901F901895B8
:100110001F920F920FB60F9211248F939F93EF931C
:10012000FF9390918B0080918D00981781F08091C2
:100130008D00E82FFF27EF71F070E257FF4F8081AD
:100140008CB980918D008F5F80938D0001C0559890
:10015000FF91EF919F918F910F900FBE0F901F9085
:10016000189580918B0090918D00891B9927089597
:10017000CF93C82FF6DF20E230E0281B310923306F
:100180003105C4F380918B00E82FFF27EF71F070E9
:10019000E257FF4FC08380918B008F5F80938B006D
:1001A000559A80E090E0CF91089580916A009091F7
:1001B0008C00891B99270895F8DF8823E9F3809143
:1001C0008C00E82FFF27EF71F070E559FF4F908109
:1001D00080918C008F5F80938C00892F99270895E0
:1001E00089E189B988E98AB940E050E06CED70E0B6
:1001F00088EB90E0A1D178940895AFE0B0E0E2E020
:10020000F1E00EC6AA24BB2465014C013B014D87D9
:100210005E871F86FC0116821782838181FD7AC169
:100220008FEF9FEF86C10894611C711CFF85F0FF62
:1002300061C1832D80538A3008F46CC1832D9927C6
:1002400087FD9095883691055CF5853691050CF013
:1002500052C08335910509F46FC084359105A4F42B
:100260008B32910509F456C18C32910544F48032E9
:10027000910509F44FC1839709F44CC133C18D979F
:10028000029708F02FC146C183369105E9F1843603
:1002900091050CF05DC08835910509F48CC022C130
:1002A0008037910509F483C08137910584F48C3639
:1002B0009105E9F08D3691052CF48936910509F404
:1002C00047C010C18F36910509F46DC00BC1853749
:1002D000910509F473C08637910524F4833791059D
:1002E000D9F000C18837910509F465C0FBC08F853E
:1002F00084608F870FC10F2EFFE3AF2EF02D0F2EDE
:10030000F3E63F2EF02DA4C0ED85FE85CF010296C9
:100310008D879E87A0809CC0ED85FE85CF010296CB
:100320008D879E87A080B180F50101900020E9F7BC
:1003300031972E2E2A188CC0ED85FE85CF010296AE
:100340008D879E87A080B180C5019FD1282E80C057
:100350009F8592FF0BC0ED85FE85CF0104968D87AA
:100360009E8720813181428153810DC0ED85FE85BC
:10037000CF0102968D879E87808191819C014427C1
:1003800037FD4095542F59016A01552394F59F85F7
:1003900092609F87D094C094B094A094A11CB11C8B
:1003A000C11CD11C26C02224689423F807C00F2E3C
:1003B000F8E73F2EF02D2224689424F8EF85E2FF21
:1003C0000BC0ED85FE85CF0104968D879E87208129
:1003D0003181428153810BC0ED85FE85CF010296AC
:1003E0008D879E87808191819C01442755275901E3
:1003F0006A012E010894411C511CE22CFF240027A5
:100400001127C601B501A8019701E8D4DC01CB0191
:10041000F20180838A301CF0830D815203C0F20107
:100420008081805DF20181932F01C601B501A80191
:100430009701D4D459016A012115310541055105AF
:1004400001F7FF85F1FF04C0B4018DE290E0B8D060
:1004500083E6381639F48A2DB401992787FD9095E3
:10046000AFD046C093E73916A1F42A94EFEF2E16C9
:1004700009F43EC0F50180810894A11CB11CB401AF
:10048000992787FD90959CD02A94FFEF2F1691F71E
:100490002FC083E5381689F42A949FEF291641F17D
:1004A000F5018491B40199278BD00894A11CB11C4B
:1004B0002A94FFEF2F16A1F71BC0CE0101968415D9
:1004C0009505B1F001E010E00C0F1D1FF2018291C3
:1004D0002F01B401992787FD909572D00415150559
:1004E000A9F706C0B401832D992787FD909568D0A0
:1004F0001F8610C0F5E23F1639F481E08F870F2E7A
:10050000FAE02F2EF02D06C0B401832D992787FD28
:10051000909556D0F401838183FF03C0F30134909A
:1005200002C0F3013080332009F07DCEF4018681D2
:100530009781E2E12F9690C40F931F93CF93DF939F
:100540008C01EB01009711F4672BA9F16CE070E0CE
:1005500081E090E0D2D2FC01892B61F1209771F00B
:10056000C287D38781E083838091AE009091AF00F2
:10057000892B21F4F093AF00E093AE000115110533
:10058000C9F0008711878381826083838091B000E6
:100590009091B100892B71F4F093B100E093B00019
:1005A0008091B2009091B300892B21F4F093B300B5
:1005B000E093B200CF01DF91CF911F910F91089589
:1005C0000F931F93CF93DF938C01EB018B819927BE
:1005D00081FF1CC082FF0DC02E813F818C819D81D7
:1005E0002817390764F4E881F9810193E883F983D6
:1005F00006C0E885F985802F0995892B39F48E810D
:100600009F8101968E839F83C80102C08FEF9FEF69
:10061000DF91CF911F910F910895A0E0B0E0E2E14A
:10062000F3E00EC445E050E04C0F5D1FFA0121914C
:100630003191AF01A091B000B091B100FD01838173
:1006400088608383B9018091B0009091B100D5DDBD
:10065000E091B000F091B1002381277F2383E2E095
:100660000BC4A0E0B0E0E6E3F3E0EAC3E5E0F0E0CD
:10067000EC0FFD1F81919191AF01BC018091AE0003
:100680009091AF000BD0E2E0F7C3FC010590002091
:10069000E9F7809590958E0F9F1F0895A6E0B0E032
:1006A000E3E5F3E0BDC3CC24DD2476015C0169837E
:1006B0007A834A015524222433248101FC012682B5
:1006C00037822B823C82838180FDF0C18FEF9FEFC8
:1006D00011C229813A812F5F3F4F29833A83852DAB
:1006E00099278D839E8380FFAFC195E2791619F417
:1006F000EEEF5E22CEC1972D90539A3058F4FFE76B
:100700006F1611F4662404C08AE0689E602C1124E0
:10071000690ECCC1872D992787FD9095C7D3782E78
:10072000282F332727FD30952E36310509F466C171
:100730002F363105F4F42836310509F4B7C12936CE
:1007400031057CF42336310599F12436310524F442
:100750002A32310539F161C12436310509F48BC0E3
:100760005CC12936310509F486C02C363105E9F023
:1007700054C12337310509F444C0243731054CF402
:100780002F36310509F46EC02037310509F46FC0EA
:1007900044C12537310509F46CC02837310509F407
:1007A00066C03BC120E1522A81C134E0532A7EC198
:1007B0008D8184FD07C0F40122E030E0820E931E9B
:1007C000C080D1803FE7631611F471E0672E862D5B
:1007D0006A9418160CF021C1C501A9D18C018FEFC4
:1007E0000F3F180709F470C19D8194FDF0CFF60109
:1007F00000830894C11CD11CEACFB501C801D1D235
:100800002CC0ED81E4FD07C0F40122E030E0820E4F
:10081000931EC080D180C5018AD18C0138D3892B29
:10082000D1F73FEF0F3F130709F44EC1862D6A94AD
:1008300018169CF4C8012BD3892BF9F68D8184FD01
:1008400005C0F60100830894C11CD11CC5016FD1FD
:100850008C019FEF0F3F190749F754FCDEC0F601EA
:100860001082DBC068E0462EE2E05E2A04C050E160
:10087000452EF2E05F2AC5015AD18C0108D3892B9D
:10088000D1F72FEF0F3F120709F41EC10D3211F0FF
:100890000B3281F46A9416140CF016C10D3211F467
:1008A00038E0532AC50143D18C018FEF0F3F180761
:1008B00009F40AC1003371F5CC24DD2476016A9471
:1008C00016140CF06EC0C50132D18C019FEF0F3FA2
:1008D000190709F466C0C801E9D28837B1F4EFE618
:1008E0007E1631F0F4E67F1619F025E7721621F432
:1008F000B501C80156D255C040E1442EC50117D1FB
:100900008C018F5F9F4F31F44CC089E6781611F44B
:1009100038E0432ECC24DD247601C801C7D2C0972D
:100920008D839E838A30910544F0C1978D839E8389
:1009300097FD03C00A968D839E83ED81FE81F7FDAE
:1009400005C0842D9927E817F90724F0B501C801DF
:1009500028D21DC0242D332744275527C701B601AF
:10096000B8D26B017C012D813E81C901AA2797FD78
:10097000A095BA2FC80ED91EEA1EFB1E6A94161443
:1009800034F4C501D4D08C018F5F9F4F31F653FEF4
:1009900008C0F094E094D094C094C11CD11CE11C18
:1009A000F11C252D332724FD38C0C90186709070B5
:1009B000069731F4F40182E090E0880E991E0EC093
:1009C00021FF06C0F40122E030E0820E931E10C029
:1009D000C401029622FF0AC0F4014C010190F0818B
:1009E000E02DC082D182E282F38217C0F4014C0173
:1009F0000190F081E02DC082D1820FC03D8134FD95
:100A00000CC0F40182E090E0880E991EA081B181B3
:100A1000F501868197818D939C935524F5018681FC
:100A200097812B813C812817390724F40894211CD5
:100A3000311C3CC03EE6731609F046C08FEF0F3FF5
:100A4000180709F441C032C095E2791669F421E033
:100A5000522E9AE0492EF5010680F781E02DEB83B6
:100A6000FC838FE7682E22C0872D992787FD9095FC
:100A70000ED2892B71F0C5015AD08C0108D2892B76
:100A8000D1F7FFEF0F3F1F07F9F0B501C80189D17A
:100A90000DC0C5014CD08C018F5F9F4FA9F0872DF1
:100AA000992787FD90950817190771F4F50183813F
:100AB00083FF04C0E981FA81749003C0E981FA815F
:100AC0007080772009F005CE50FE0BC0F5018681BD
:100AD00097812B813C81281739071CF40894211C2D
:100AE000311C2114310429F43FEF0F3F130709F49F
:100AF0001801C101E2E12696AFC10F931F93CF9376
:100B0000DF93869F8001879F100D969F100D112403
:100B1000C8014AD0EC01009721F0A80160E070E024
:100B200039D1CE01DF91CF911F910F910895CF93CD
:100B3000DF93EC014B81842F992780FF1BC086FF38
:100B400009C04F7B4B838E819F8101968E839F834B
:100B50008A8126C082FF11C0E881F9818191282F06
:100B6000332727FD3095E883F9832115310591F46A
:100B700040624B838FEF9FEF14C0EA85FB85099598
:100B80009C018FEF2F3F380729F48B8180618B8385
:100B9000C90107C08E819F8101968E839F83822F1A
:100BA0009927DF91CF910895CF93DF93AC010297FE
:100BB00010F442E050E020E030E0A091B600B091A7
:100BC000B700BD01F901109709F44CC08D919C91BB
:100BD00011978417950731F14817590738F42115F3
:100BE000310519F08217930708F49C01FD01A281D9
:100BF000B381109759F721153105A1F1C901841B63
:100C0000950B049708F4A901DB01E0E0F0E01097F0
:100C100049F18D919C91119782179307F9F442172E
:100C2000530779F4ED012A813B81CD01029630977B
:100C300019F0228333834FC03093B7002093B6005E
:100C40004AC0241B350BFD01E20FF31F4193519362
:100C5000225030402D933C93CF013DC0FD01A28135
:100C6000B381D5CF8091B4009091B500892B41F428
:100C700080916500909166009093B5008093B400D8
:100C8000E0916300F0916400309741F4EDB7FEB756
:100C90008091670090916800E81BF90BA091B40067
:100CA000B091B5009F012A1B3B0B2417350788F034
:100CB000CA0102962817390760F0CD01840F951FED
:100CC00002969093B5008093B4004D935D93CD014F
:100CD00002C080E090E0DF91CF910895CF93DF9341
:100CE000009709F454C0DC011297ED011A821B82AF
:100CF0008091B6009091B700009721F1FC0140E08F
:100D000050E0EA17FB0718F1ED01EA83FB832D9110
:100D10003C911197C20FD31FCE0102968E179F07E9
:100D200071F48A819B81280F391F2E5F3F4F2D93CD
:100D30003C93119782819381FD01828393834115B6
:100D4000510559F4B093B700A093B60020C0AF018D
:100D50000280F381E02D3097A1F6EA01AA83BB83DC
:100D6000CA01029628813981820F931F8A179B0737
:100D700071F48D919C911197280F391F2E5F3F4F71
:100D800028833983FD01828193818A839B83DF914C
:100D9000CF910895DC0101C06D9341505040E0F7C0
:100DA0000895AC01FB012381822F992780FF06C0A3
:100DB00086FD04C08FEF4F3F580719F48FEF9FEF68
:100DC0000895428320642F7D238386819781019734
:100DD00086839783842F992708950895A1E21A2E78
:100DE000AA1BBB1BFD010DC0AA1FBB1FEE1FFF1FCF
:100DF000A217B307E407F50720F0A21BB30BE40B1F
:100E0000F50B661F771F881F991F1A9469F7609565
:100E10007095809590959B01AC01BD01CF0108951F
:100E20002F923F924F925F926F927F928F929F92FA
:100E3000AF92BF92CF92DF92EF92FF920F931F93E8
:100E4000CF93DF93CDB7DEB7CA1BDB0B0FB6F89499
:100E5000DEBF0FBECDBF09942A88398848885F84D9
:100E60006E847D848C849B84AA84B984C884DF804A
:100E7000EE80FD800C811B81AA81B981CE0FD11D2E
:100E80000FB6F894DEBF0FBECDBFED0108959923D4
:100E900099F4803299F08A3089F08C3079F08D3075
:100EA00069F0893059F08B3039F408958F9309D067
:100EB0008F9109F08062089599278827089585FD0C
:100EC000FBCF80629923C1F78136B4F38B37A4F747
:100ED0000895629FD001739FF001829FE00DF11D84
:100EE000649FE00DF11D929FF00D839FF00D749FA4
:100EF000F00D659FF00D9927729FB00DE11DF91F50
:100F0000639FB00DE11DF91FBD01CF0111240895AC
:0A0F10002573000000B80020000067
:00000001FF
