:100000003EC057C056C055C054C053C052C051C066
:1000100050C04FC04EC08FC0B7C04BC04AC049C0CF
:1000200048C047C046C0537472696E672073746FCE
:1000300072656420696E20464C4153480A00554160
:100040005254204672616D65204572726F723A207B
:100050000055415254204F76657272756E2045727C
:10006000726F723A2000427566666572206F76651F
:1000700072666C6F77206572726F723A200011247D
:100080001FBECFE5D4E0DEBFCDBF10E0A0E6B0E0FC
:10009000ECE2F3E002C005900D92A837B107D9F762
:1000A00010E0A8E7B0E001C01D92AD3BB107E1F759
:1000B00001C0A6CFC8E5D4E0DEBFCDBF89E190E0A6
:1000C00089D0789480E690E0CBD086E290E0D6D0DC
:1000D0004AE050E0BE016F5F7F4F86E890E0DFD0DE
:1000E000CE010196BDD08DE0A9D08BD08C01892F97
:1000F000992780FDFACFC801892F99278695869583
:10010000869580FF03C08EE390E0B8D0C801892FA8
:1001100099278695869580FF03C081E590E0AED053
:10012000C801892F9927869580FF03C086E690E055
:10013000A5D0802FD9CF1F920F920FB60F92112406
:100140002F938F939F93EF93FF939BB12CB1987153
:10015000E091BA00EF5FEF718091BB00E81711F4F6
:1001600092E006C0E093BA00FF27E856FF4F2083D5
:100170009093BC00FF91EF919F918F912F910F90E1
:100180000FBE0F901F9018951F920F920FB60F92EF
:1001900011248F939F93EF93FF939091B8008091D8
:1001A000B900981769F08091B9008F5F8F718093C3
:1001B000B900E82FFF27E858FF4F80818CB901C0B4
:1001C0005598FF91EF919F918F910F900FBE0F90D7
:1001D0001F9018959C011092B8001092B9001092CF
:1001E000BA001092BB0097FF03C082E08BB93F7743
:1001F000832F992780BD29B988E98AB986E880BD0F
:1002000008959091BA008091BB00981719F480E08E
:1002100091E008958091BB008F5F8F718093BB0048
:10022000E82FFF27E856FF4F20818091BC009927D7
:10023000982F8827820F911D08950895282F909157
:10024000B8009F5F9F718091B9009817E1F3E92F83
:10025000FF27E858FF4F20839093B800559A0895E0
:10026000CF93DF93EC018881882329F08991E6DF21
:1002700088818823D9F7DF91CF910895CF93DF93B9
:10028000EC01FC0121968491882331F0D7DFFE0137
:10029000219684918823D1F7DF91CF910895E62F9D
:1002A000F72F2E2F3F2FE8944230C4F04532B4F49C
:1002B0004A3029F497FB1EF4909581959F4F642F47
:1002C000772720D0805D8A330CF0895D8193862F5B
:1002D000972F0097A1F716F45DE25193932F822F89
:1002E000108200C0DC01FC0101900020E9F7329788
:1002F000AE17BF0730F47C916081708331976D93A6
:10030000F7CF0895AA1BBB1B51E107C0AA1FBB1F53
:10031000A617B70710F0A61BB70B881F991F5A9591
:0C032000A9F780959095BC01CD010895CF
:10032C00537472696E672073746F72656420696EA2
:08033C00205352414D0A00005C
:00000001FF
