:100000000C9442000C945D000C945D000C945D0017
:100010000C945D000C945D000C9466030C948002BB
:100020000C94CE020C945D000C945D000C945D0069
:100030000C945D000C940C030C943D030C945D0037
:100040000C945D000C945D000C945D000C945D00BC
:100050000C945D003D2220092C0D0A006D6F746F19
:10006000720000000000737065656400000000000D
:10007000616E676C65000000000000000000000079
:100080000000000011241FBECFE5D8E0DEBFCDBFC9
:1000900010E0A0E6B0E0E6E3FFE002C005900D92BC
:1000A000A039B107D9F712E0A0E9B0E001C01D9274
:1000B000AC32B107E1F70C94BA030C94000000973E
:1000C00011F00197FCCF0895282F332722303105F6
:1000D000B9F0233031053CF421153105A9F0213068
:1000E000310541F034C024303105D9F025303105D7
:1000F00049F12DC081E0809395008093960008C05F
:1001000082E08093950011C01092950010929600A5
:100110003093A4002093A3003093A6002093A50061
:10012000089581E08093950082E08093960081E0BD
:1001300090E09093A4008093A3009093A6008093F6
:10014000A500089582E08093950081E0EECF1092A3
:100150009500109296001092A4001092A3001092A5
:10016000A6001092A5000895089526E08031920718
:1001700009F4ACC026E08131920728F521E08031F6
:10018000920709F4B9C021E08131920748F4803127
:10019000910509F445C08039910509F4BAC0089564
:1001A00024E08031920709F465C024E08131920790
:1001B00028F48051924009F473C008958059944006
:1001C00009F4ABC008952AE08031920709F473C0A6
:1001D0002AE08131920790F428E08039920709F4EF
:1001E0009AC028E08139920720F48051984019F193
:1001F00008958051994009F48AC008952CE080390F
:10020000920709F48CC02CE08139920720F48051C8
:100210009C40D9F1089580519E4009F462C0089530
:100220008091A700E82FFF27EE0FFF1FE85DFE4F2C
:1002300080E293E00AC08091A700E82FFF27EE0F2D
:10024000FF1FE85DFE4F8CEB92E0808391838091ED
:10025000A700E82FFF27EE0FFF1FE85DFE4F80810C
:10026000918190932B0180932A019093290180938F
:10027000280108958091A700E82FFF27EE0FFF1FA8
:10028000E85DFE4F88E592E0E0CF8091A700E82F7F
:10029000FF27EE0FFF1FE85DFE4F84EF91E0D5CF03
:1002A0008091A700E82FFF27EE0FFF1FE85DFE4FAC
:1002B00080E991E0CACF8091A700E82FFF27EE0FD9
:1002C000FF1FE85DFE4F8CE291E0BFCF8091A70059
:1002D000E82FFF27EE0FFF1FE85DFE4F88EC90E050
:1002E000B4CF8091A700E82FFF27EE0FFF1FE85D36
:1002F000FE4F84E690E0A9CF8091A700E82FFF276A
:10030000EE0FFF1FE85DFE4F8AE090E09ECF80E099
:1003100007C081E005C082E003C084E001C085E041
:100320000E9464000895DF92EF92FF920F931F9353
:10033000CF93DF9368EA70E0CB010E942506D82EA8
:1003400082E690E00E94D1058D2D805D0E94CB0554
:100350008AE20E94CB0588EA90E00E94D1058D2DAB
:10036000992782309105C9F0833091051CF40197DB
:1003700021F066C00397F9F063C088EA90E00E941C
:100380000A078093A700282F882321F0215020936B
:10039000A7005AC08093A70057C08091A700082FDC
:1003A0001127000F111F085D1E4F88EA90E00E9480
:1003B0000A07992741C08091A700C82FDD278E0129
:1003C0000C0F1D1F53EAE52E50E0F52EE00EF11E36
:1003D00088EA90E00E940A079C01F70180839183DC
:1003E00097FF0AC0CB56DF4F82E088833095219576
:1003F0003F4F2083318310C0009721F4CB56DF4F4D
:10040000188222C01816190624F4CB56DF4F81E05B
:100410008883F7012081318122303105ACF0C90198
:10042000880F991F880F991F820F931F80839183D4
:10043000085D1E4F88EE93E0F8018083918304C02D
:100440008CE690E00E94D105FFEFDF1609F072CF35
:1004500080E090E0DF91CF911F910F91FF90EF909E
:10046000DF900895EF92FF920F931F93CF93DF9346
:10047000C0E0D0E0E82EFF24F701EB56FF4F80816B
:10048000813079F483E00E9403068701005A1F4FF0
:10049000F80180810E941806F80180810E941806E8
:1004A000EC0180919500823081F483E00E94030684
:1004B0008701005A1F4FF80180818F5F0E94180644
:1004C000F80180810E941806EC01C43DD10588F036
:1004D000C35DD0406AE0CE010E94E405F701EE0D55
:1004E000FF1DEF56FF4F808191818C0F9D1F8083F0
:1004F0009183DF91CF911F910F91FF90EF9008951D
:100500001F920F920FB60F9211242F933F934F9388
:100510005F936F937F938F939F93AF93BF93CF938B
:10052000EF93FF93C091970020912801309129010A
:10053000CC2399F08FEF9FE0821B930B9BBD8ABD6C
:100540006091950081E00E94D204809195008823FB
:1005500069F088E70E94CB0509C03BBD2ABD6C2F1E
:1005600081E00E94D2048C2F0E9432028091970079
:1005700091E0892780939700FF91EF91CF91BF91F0
:10058000AF919F918F917F916F915F914F913F912B
:100590002F910F900FBE0F901F9018951F920F92E2
:1005A0000FB60F9211242F933F934F935F936F9346
:1005B0007F938F939F93AF93BF93EF93FF9360913C
:1005C0007F0020912A0130912B01662329F039BD4B
:1005D00028BD6091960006C08FEF90E0821B930BC0
:1005E00099BD88BD82E00E94D20480917F0091E095
:1005F000892780937F00FF91EF91BF91AF919F91E9
:100600008F917F916F915F914F913F912F910F90BB
:100610000FBE0F901F9018951F920F920FB60F925A
:1006200011242F938F939F93EF93FF932CB180917D
:10063000980090919900FC01E855FF4F2083FC0140
:100640003196F0939900E09398002D3011F02A3004
:1006500051F4E855FF4F10821092990010929800C3
:1006600081E080939000FF91EF919F918F912F9166
:100670000F900FBE0F901F9018951F920F920FB6FC
:100680000F9211242F933F934F935F936F937F9318
:100690008F939F93AF93BF93EF93FF930E94AB050C
:1006A000882311F08CB901C05598FF91EF91BF914B
:1006B000AF919F918F917F916F915F914F913F91FA
:1006C0002F910F900FBE0F901F9018951F920F92B1
:1006D0000FB60F9211242F933F934F935F936F9315
:1006E0007F938F939F93AF93BF93EF93FF9326B521
:1006F00037B5F8948EB580648EBDC9010E940F0590
:10070000009729F00E94B5008EB58F7B8EBD78943E
:10071000FF91EF91BF91AF919F918F917F916F91D9
:100720005F914F913F912F910F900FBE0F901F90AF
:1007300018950E94B3040E9406050E94BD040E9401
:10074000510581E00E940306109290001092A700CC
:100750004AE050E021E030E081E0A3EAB0E0E8E2E6
:10076000F1E0419351932D933D93815087FFF9CF51
:1007700078940895CCE5D8E0DEBFCDBF4E01089453
:10078000811C911C83E0E0E8F0E0D40101900D921F
:100790008A95E1F70E949903CC24BC2C80B3982F52
:1007A000987083FD17C0B394B2E0BB150CF4B92E5A
:1007B00003EF11E080E797E10E945F0001501040D5
:1007C00017FFF8CFB092950081E090E09093A400DD
:1007D0008093A30083B3982F947082FD17C0C394B5
:1007E000E2E0EC150CF4C92E03EF11E080E797E18D
:1007F0000E945F000150104017FFF8CFC092960092
:1008000081E090E09093A6008093A50080919000F5
:10081000882371F00E949301109290008091A700AC
:10082000E82FFF27EE0FFF1FEF56FF4F10821182B8
:10083000DD24ED2CFF2497012E0D3F1DF901ED5510
:10084000FF4F4081518142305105ECF0D701AB564A
:10085000BF4F8C918823B9F089010F561F4FF801C3
:10086000808191818417950770F01C9283E890E055
:100870000E94D1056AE0D8018D919C910E94E40507
:10088000F801108211821D2D1F5F85E990E0E80EAE
:10089000F91ED7018C91F401E80FF11D612F8081C1
:1008A0000E945C0480E197E20E945F00D12EB1E0DB
:1008B000B11708F0BECF72CF992787FD909586308B
:1008C000910509F441C0873091058CF4823091057F
:1008D00059F1833091052CF4009711F1019711F132
:1008E00037C08430910521F1059724F51FC0893068
:1008F000910531F18A30910534F487309105E1F0AA
:100900000897E1F025C082369105F1F08336910514
:100910001CF40A97D9F01CC08636910599F018C0CE
:100920008FE315C086E013C08BE511C08FE40FC0C4
:1009300086E60DC08DE60BC087E009C08FE707C0D3
:1009400087E605C081E703C08CE701C080E888BB6B
:10095000613019F4AB98AC9A0895623011F4AC98F8
:10096000AB9A089508958FEF87BB84B3886184BBE9
:100970008B98A298939AAA9A08958FB583608FBD99
:100980008EB58C608EBD89B7886189BF8FE790E096
:100990009BBD8ABD99BD88BD8AB3806F8ABB8D9A85
:1009A0008C9A0895382F862F99278130910549F028
:1009B0008230910574F08230910531F0039739F05F
:1009C00008C020E09FEF07C02FEF90E004C09FEF2A
:1009D00001C090E0292F313059F4959A8BB38F7C68
:1009E0008BBB20719072292B8BB3822B8BBB08950C
:1009F000323051F4949A8BB38F738BBB2074907800
:100A0000292B8BB3822B8BBB089508958E988EB5BE
:100A100085688EBD89B7806289BF78940895BC01CE
:100A200080919A0090919B009B01281B390B2A30E2
:100A3000310520F12632310558F010929C001092B9
:100A40009B0010929A0010929E0010929D0016C07A
:100A500080919D0090919E0040919C002A3131052B
:100A600020F0880F991F816002C0880F991F909312
:100A70009E0080939D004F5F40939C0070939B006D
:100A800060939A0080919C008C3039F410929C0005
:100A900080919D0090919E00089580E090E00895DF
:100AA000089586E880BD88E98AB987E689B910BCCF
:100AB0001092A00010929F000895982F8091A0009E
:100AC00087FD10C0E82FFF27E45DFE4F90838F5F06
:100AD0008093A000E82FFF27E45DFE4F108280E0A6
:100AE00090E0089582E090E0089508958091A0003C
:100AF0008823A1F090912C01282F21502093A00051
:100B00002F5F30E0E32FFF27E45DFE4F818180837C
:100B10003F5F2150B9F7892F9927089580E090E031
:100B200008950895982F80919F00813818F082E0F1
:100B300090E00895E82FFF27E455FE4F90838F5FE4
:100B400080939F00E82FFF27E455FE4F108280E03E
:100B500090E00895089580919F008823A1F0282FA8
:100B6000215020939F002F5F9091AC0130E0E32F44
:100B7000FF27E455FE4F818180833F5F2150B9F705
:100B8000892F9927089580E090E0089508950E94A4
:100B90007605992708950E949205559A80E090E085
:100BA0000895CF93DF93EC018881882321F0899108
:100BB0000E94CB05F9CF8DE00E94CB058AE00E9410
:100BC000CB05DF91CF910895CF93DF93CDB7DEB7FB
:100BD00064970FB6F894DEBF0FBECDBF262F332724
:100BE000A901BE016F5F7F4F0E943707CE010196BA
:100BF0000E94D10564960FB6F894DEBF0FBECDBF3C
:100C0000DF91CF91089597EC96B98295880F880F60
:100C1000807C87B98AB3807F8ABB0895882319F0C6
:100C200086B1886C02C086B1877B86B90895089525
:100C300096B19F7596B997B1982B97B9379A369A0E
:100C4000349BFECF84B195B10895CF92DF92EF929D
:100C5000FF920F931F93CF937C0151E0CC24DC2CA7
:100C60004C2DE091A100F091A200EE0DFF1D8081BE
:100C7000882309F4C1C030E0852F9927823091057F
:100C800079F1833091051CF4019759F0ABC08330A2
:100C9000910509F45AC0049709F47BC0A3C052E03F
:100CA00072C0232FECE5F0E09491992309F49AC0E7
:100CB000E091A100F091A200EE0DFF1D80813AE0CD
:100CC000891769F32F5F239FF0011124E45AFF4F26
:100CD00094919923A9F786C031E017C0C22E30C085
:100CE000E091A100F091A200EE0DFF1D9081232F55
:100CF000E4E5F0E08491882341F0981769F32F5FD1
:100D0000E22FFF27EC5AFF4FF5CFE42FFF273323C5
:100D100009F464C0EE0DFF1D10829D3309F062C01E
:100D2000C0810CE510E0B801C7010E9464072C2FB8
:100D30002F5F892B99F2C22F065F1F4F243098F343
:100D400040E053E04FC031E015C0E091A100F091C8
:100D5000A200EE0DFF1D9081232FE4E5F0E08491C9
:100D6000882341F0981779F32F5FE22FFF27EC5A81
:100D7000FF4FF5CF923221F481E0D82654E040E0D5
:100D8000332381F554E0F701908341E02BC031E03B
:100D900015C0E091A100F091A200EE0DFF1D908121
:100DA000232FE4E5F0E08491882341F0981779F34C
:100DB0002F5FE22FFF27EC5AFF4FF5CF923211F44D
:100DC00081E0D826D11030E0E42FFF27332331F023
:100DD000EE0DFF1D10828C2D992714C0EE0DFF1D06
:100DE00090834F5FE091A100F091A2003196F093C3
:100DF000A200E093A10039CF1092A2001092A100AE
:100E00008FEF90E0CF911F910F91FF90EF90DF90C7
:100E1000CF900895FC0188279927E89421912223F7
:100E2000F1F02032D9F32930C9F32A30B9F32C304C
:100E3000A9F32D3099F3263789F32B3219F02D328F
:100E400021F468942191222351F0203344F02A3375
:100E500034F420530E945C07820F911DF3CF81155B
:100E6000910521F01EF48095909501960895E62F46
:100E7000F72F2E2F3F2FE8944230CCF04532BCF4B0
:100E80004A3029F497FB1EF4909581959F4F642F6B
:100E900077270E948707805D8A330CF0895D8193F4
:100EA000862F972F009799F716F45DE25193932FB1
:100EB000822F10820C9477077AE0979F902D879F5E
:100EC000802D910D11240895FB01DC018D91059079
:100ED000602D502D5062513624F05B3714F460625F
:100EE0008062861B11F4002089F7990B0895DC01BC
:100EF000FC0101900020E9F73297AE17BF0730F4EC
:100F00007C916081708331976D93F7CF0895AA1B10
:100F1000BB1B51E107C0AA1FBB1FA617B70710F0E4
:100F2000A61BB70B881F991F5A95A9F78095909516
:060F3000BC01CD01089593
:100F36000002436F6D6D616E64203A00436F6D6D04
:100F4600616E64206E6F7420666F756E642000019A
:100F5600006662566F6C746167652053554D0000DC
:00000001FF
