:020000021000EC
:10E000000C94A8F00C94C5F00C94C5F00C94C5F0D9
:10E010000C94C5F00C94C5F00C94C5F00C94C5F0AC
:10E020000C94C5F00C94C5F00C94C5F00C94C5F09C
:10E030000C94C5F00C94C5F00C94C5F00C94C5F08C
:10E040000C94C5F00C94C5F00C94C5F00C94C5F07C
:10E050000C94C5F00C94C5F00C94C5F00C94C5F06C
:10E060000C94C5F00C94C5F00C94C5F00C94C5F05C
:10E070000C94C5F00C94C5F00C94C5F00C94C5F04C
:10E080000C94C5F00C94C5F00C94C5F04572726FF9
:10E09000720A00517569742E2E2E0A000A4D6F6E99
:10E0A00069746F720A000A462041414141202020D4
:10E0B000202D2064756D7020666C6173680A0058AD
:10E0C0002041414141205858202D2064756D702F0A
:10E0D0006D6F646966792072616D0A004520414167
:10E0E0004141205858202D2064756D702F6D6F644C
:10E0F00069667920656570726F6D0A005420484822
:10E100004D4D5353202D20646973706C61792F73CA
:10E1100065742074696D650A00442059594D4D4459
:10E1200044202D20646973706C61792F73657420AD
:10E13000646174650A0051202020202020202020C6
:10E140002D2071756974206D6F6E69746F720A008D
:10E1500011241FBECFEFD0E1DEBFCDBF11E0A0E0A4
:10E16000B1E0EAEBF7EF01E00BBF02C007900D92C0
:10E17000AA30B107D9F714E0AAE0B1E001C01D92BE
:10E18000A837B107E1F70C94C0FA0C9400F0CF93D4
:10E19000DF93DC01EB01E0910801F091090187E0D8
:10E1A00087871097B1F12091080130910901FD0195
:10E1B0008681F9018487E0910801F09109018C9131
:10E1C00083872091080130910901FD018181F901C6
:10E1D00082872091080130910901FD018281F901B6
:10E1E00081872091080130910901FD018381F901A6
:10E1F00080872091080130910901FD018481F90196
:10E2000087832091080130910901FD018581F90181
:10E210008683209721F1E0910801F091090188811E
:10E220008583E0910801F091090189818483E0915F
:10E230000801F09109018A818383E0910801F0913E
:10E2400009018B818283E0910801F09109018C81A1
:10E250008183E0910801F09109018D818083E09133
:10E260000801F09109011586E0910801F09109017A
:10E2700084E08787DF91CF910895DC01E091080168
:10E28000F091090185818F708C93E0910801F091E4
:10E29000090184818F70FD018183E0910801F09173
:10E2A000090183818F70FD018283E0910801F09163
:10E2B000090182818F70FD018383E0910801F09153
:10E2C000090181818F70FD018483E0910801F09143
:10E2D000090180818F70FD018583CD010895DC01E6
:10E2E000E0910801F091090184858F70FD0186831A
:10E2F000E0910801F091090183858F708C93E09182
:10E300000801F091090182858F70FD018183E09100
:10E310000801F091090181858F70FD018283E091F0
:10E320000801F091090180858F70FD018383E091E0
:10E330000801F091090187818F70FD018483E091CC
:10E340000801F091090186818F70FD018583CD015F
:10E350000895CF93DF93DC01FB018C91805D808376
:10E36000ED018981805D81839AE392838A81805D5A
:10E3700083838B81805D848395838C81805D86839C
:10E380008D81805D87831086CB01DF91CF910895C9
:10E39000CF93DF93DC01FB018C91805D8083ED01E5
:10E3A0008981805D81839FE292838A81805D8383FE
:10E3B0008B81805D848395838C81805D86838D8154
:10E3C000805D87831086CB01DF91CF910895809186
:10E3D00061008F7780936100809161008F7B8093D3
:10E3E0006100809162008068809362008091620089
:10E3F0008064809362000895E0E0F0E084918F3FB4
:10E4000071F0079904C081E080931E0108C006994D
:10E4100004C081E080931D0102C00C940000809133
:10E420001E01882339F480911D01882319F481E0AD
:10E4300080931E010895089580911E01882351F054
:10E4400085E089B9109290001BB886E08093950012
:10E4500088E18AB980911D01882369F085E0809365
:10E4600099001092980010929B0086E080939D0086
:10E4700088E180939A0008950895CF93DF938BE00D
:10E4800090E090931C0180931B01E0910401F091B6
:10E49000050181E08193DF011D9288E08183FD0108
:10E4A000319683E5ED018983DF01119684E581834F
:10E4B000FD0131968BE4ED018983DF01119685E33F
:10E4C0008183FD01319680E3ED018983DF0111969F
:10E4D0008183FD0131968FE5ED01898382E381839C
:10E4E0003296F0930501E0930401DF91CF910895F6
:10E4F000CF93DF9383E090E090931C0180931B0106
:10E50000C0910401D091050183E08993DE011D9241
:10E51000B0930501A0930401E0910601F091070179
:10E52000818199278539910519F1863991058CF4F6
:10E5300081399105D9F08239910524F4803991050A
:10E54000A9F022C082399105A9F08439910581F0A2
:10E550001BC08739910571F0873991055CF08839C6
:10E56000910541F08A39910539F00EC082E005C06D
:10E5700082E303C081E001C08AEA89831196B093E7
:10E580000501A093040109C0E0910401F091050187
:10E590001192F0930501E0930401DF91CF9108956A
:10E5A00082E090E090931C0180931B01E0910401B4
:10E5B000F091050182E081931192F0930501E093BF
:10E5C0000401089582E090E090931C0180931B0168
:10E5D000E0910401F091050180E181931192F093A3
:10E5E0000501E0930401089582E090E090931C01FE
:10E5F00080931B01E0910401F091050181E1819379
:10E600001192F0930501E0930401089523E080E066
:10E6100090E0A0E0B0E0FC01A0935B0020936800D4
:10E62000E8958091680080FDFCCF81E180936800CF
:10E63000E89582E090E090931C0180931B01E091AB
:10E640000401F091050182E181931192F09305019B
:10E65000E09304010895CF93DF9384E090E09093DA
:10E660001C0180931B01C0910401D09105018BE135
:10E670008993DE011D92B0930501A0930401E091FE
:10E680000601F09107018481882311F48EE103C013
:10E69000813041F487E989831196B0930501A093F5
:10E6A00004010CC09D012F5F3F4F823011F489831C
:10E6B00001C019823093050120930401E091040107
:10E6C000F09105011192F0930501E0930401DF91AF
:10E6D000CF910895E0910601F09107018381992778
:10E6E000982F88272481820F911D90931501809384
:10E6F000140183819927982F88272481820F911DE7
:10E70000880F991FAA2797FDA095BA2F809316010D
:10E7100090931701A0931801B093190182E090E043
:10E7200090931C0180931B01E0910401F09105017D
:10E7300086E081931192F0930501E093040108951E
:10E740002F923F924F925F926F927F928F929F9201
:10E75000AF92BF92CF92DF92EF92FF920F931F93EF
:10E76000CF93DF93CDB7DEB72497DEBFCDBFE09167
:10E770000601F091070181819927982F882722812E
:10E78000820F911D90931301809312013A96F0939A
:10E790000701E0930601A0901601B0901701C09008
:10E7A0001801D0901901E12C7FEFF72E7FEF072F92
:10E7B0007FEF172FEA20FB200C211D219C0144270D
:10E7C00055272A0D3B1D4C1D5D1DDA01C9018070C6
:10E7D0008E199F09A00BB10B892F9A2FAB2FBB2746
:10E7E0008F5F8093110110920C0110920B019927F9
:10E7F000009709F489C039014A0121E0322E89834A
:10E800009A83B3E04B2EA5E05A2EF1E12F2E109201
:10E810000E0110920D0120910D0130910E012B83FC
:10E820003C83A901662777274E0D5F1D601F711F6E
:10E830004A155B056C057D0528F06416750686068D
:10E84000970658F46BBFFA0127914F5F5F4F6F4FE8
:10E850007F4F6BBFFA0147910BC0E0910601F09129
:10E860000701208141813296F0930701E093060170
:10E870006B817C81CB01AA27BB2733275527542FD7
:10E880004427242B352B0901FC01A0935B00309217
:10E890006800E8951124CB01029690930E018093B5
:10E8A0000D018F3F910509F008F4B5CFF7010093F2
:10E8B0005B0040926800E8958091680080FDFCCF85
:10E8C000F70100935B0050926800E8958091680022
:10E8D00080FDFCCF20926800E89580E091E0A0E008
:10E8E000B0E0E80EF91E0A1F1B1F80910B019091EA
:10E8F0000C01019690930C0180930B01A981BA81C0
:10E900008A179B0708F483CF80911201909113011D
:10E910009C01442755278091160190911701A091E1
:10E920001801B0911901820F931FA41FB51F809386
:10E93000160190931701A0931801B093190110923A
:10E940000E0110920D018FEFE0E2F2E08193B3E04F
:10E95000EB34FB07D9F3D0F38CE291E090930E01F6
:10E9600080930D0182E090E090931C0180931B0145
:10E97000E0910401F091050183E181931192F093FC
:10E980000501E09304012496DEBFCDBFDF91CF9156
:10E990001F910F91FF90EF90DF90CF90BF90AF90BD
:10E9A0009F908F907F906F905F904F903F902F90AF
:10E9B0000895E0910401F091050184E181931192A1
:10E9C000F0930501E0930401E0910601F091070145
:10E9D00081819927982F88272281820F911D9093FA
:10E9E00013018093120110920E0110920D01892BD8
:10E9F000A1F12091040130910501809116019091BF
:10EA00001701A0911801B0911901AC01BD01019647
:10EA1000A11DB11D8093160190931701A0931801B9
:10EA2000B0931901D9012F5F3F4F30930501209317
:10EA300004016BBFFA0187918C9380910D01909135
:10EA40000E01019690930E0180930D012091120109
:10EA5000309113018217930760F280911201909117
:10EA60001301039690931C0180931B01E091040114
:10EA7000F09105011192F0930501E09304010895CE
:10EA8000982F80911E01882321F05D9BFECF9CB9B9
:10EA9000089580911D01882331F080919B0085FFAE
:10EAA000FCCF90939C0008950895CF9380911E0110
:10EAB000882321F05F9BFECFCCB10AC080911D015D
:10EAC000882331F080919B008823E4F7C0919C005B
:10EAD00080910A01882319F08C2F0E9440F58C2F19
:10EAE0009927CF9108950F931F93CF93DF93E091D0
:10EAF0000201F091030180911B0190911C01892F6B
:10EB000099278083E0910201F091030180911B011C
:10EB1000818380910401909105018C54934010925F
:10EB20001A01009789F00CE413E0EC01F8018081F0
:10EB30000E9440F580911A01F80191918F01892777
:10EB400080931A01219791F780911A010E9440F554
:10EB500010921A01DF91CF911F910F910895E199C1
:10EB6000FECF9FBB8EBB6DBBE29AE19A0895E09108
:10EB70000601F091070181819927982F882722812A
:10EB8000820F911D90931301809312013A96F09396
:10EB90000701E093060110920C0110920B01892BE2
:10EBA00039F1E0910601F09107014191F0930701DD
:10EBB000E093060180911401909115019C0101964A
:10EBC0009093150180931401642FC9010E94AFF541
:10EBD00080910B0190910C01019690930C01809310
:10EBE0000B01209112013091130182179307C8F293
:10EBF00010920E0110920D018FEFE0E2F2E081938E
:10EC000093E0EB34F907D9F3D0F38CE291E09093E1
:10EC10000E0180930D0182E090E090931C0180939F
:10EC20001B01E0910401F091050185E181931192AE
:10EC3000F0930501E09304010895E199FECF9FBB95
:10EC40008EBBE09A8DB399270895E0910401F0916D
:10EC5000050186E181931192F0930501E09304018F
:10EC6000E0910601F091070181819927982F88276B
:10EC70002281820F911D90931301809312011092B3
:10EC80000E0110920D01892B31F1809114019091A8
:10EC900015019C0101969093150180931401C901FF
:10ECA0000E941DF6E0910401F09105018193F0931B
:10ECB0000501E093040180910D0190910E010196F0
:10ECC00090930E0180930D01209112013091130158
:10ECD00082179307D0F2809112019091130103964D
:10ECE00090931C0180931B01E0910401F0910501B8
:10ECF0001192F0930501E09304010895F92FE82F94
:10ED000080916800896080936800C895802D08957F
:10ED100084E090E090931C0180931B01E09104013A
:10ED2000F0910501A0910601B09107018C918193AA
:10ED30001192F0930501E0930401E0910601F09136
:10ED4000070182819927382F22278381280F311DBF
:10ED500080E52830380791F080E52930380788F0C1
:10ED600088E52030380721F02850384521F009C0C7
:10ED700081E090E008C083E090E005C082E090E090
:10ED800002C080E090E00E947EF6E0910401F091E4
:10ED9000050181931192F0930501E0930401089518
:10EDA0008BE180934C038091100180934D038EE0A2
:10EDB0008093500381E593E09093050180930401D3
:10EDC00080E292E0909307018093060180912002F7
:10EDD00099278231910509F43FC083319105ACF444
:10EDE0008330910569F18430910534F481309105C7
:10EDF00021F1029741F147C08031910539F181310C
:10EE000091053CF5069771F13EC086319105B1F14F
:10EE10008731910534F48431910551F145975CF5C2
:10EE200024C08A31910569F18B3191051CF4489712
:10EE300041F129C04B9799F026C00E943DF223C0B2
:10EE40000E9478F220C00E94D0F21DC00E94E2F21F
:10EE50001AC00E94F4F217C00E9406F314C00E9468
:10EE60002BF311C00E946AF30EC00E94A0F30BC0E6
:10EE70000E94D9F408C00E94B7F505C00E9425F68B
:10EE800002C00E9488F60E9473F5089510926C00EB
:10EE90001CBE10926D0080E885BF0895EF92FF922E
:10EEA0000F931F937B018C01DC01CB010894E11CC3
:10EEB000F11C011D111DABBFFC018791882371F06E
:10EEC0000E9440F5D801C7010894E11CF11C011D06
:10EED000111DABBFFC018791882391F71F910F9102
:10EEE000FF90EF9008950F931F93CF93DF93C0E0AF
:10EEF000D0E000E211E004C0F80181938F01219677
:10EF00000E9455F58A3019F0CF3FD105A8F3C05EB5
:10EF1000DE4F188280E291E0DF91CF911F910F9137
:10EF20000895CF93DF93EC018881882331F0899194
:10EF30000E9440F588818823D1F7DF91CF91089511
:10EF4000CF93DF93EC01DB0133272130310521F032
:10EF50002230310521F007C0FD01408304C0642F39
:10EF6000CD010E94AFF5DF91CF9108955F926F922E
:10EF70007F928F929F92AF92BF92CF92DF92EF9249
:10EF8000FF920F931F93CF93DF93CDB7DEB76E97AA
:10EF9000DEBFCDBF7B018C01642E522E8AE00E9421
:10EFA00040F57724761408F076C020E130E0AE0119
:10EFB0004F5F5F4FC801B7010E944EFB0E9491F75F
:10EFC00080E20E9440F5882499245FE0A52E852DDB
:10EFD000992781309105A1F0823091051CF4892B8D
:10EFE00021F01FC00297A1F01CC0D801C7010894EE
:10EFF000E11CF11C011D111DABBFFC01B79011C03C
:10F00000F7010894E11CF11C011D111DB08009C01D
:10F01000C7010894E11CF11C011D111D0E941DF681
:10F02000B82E8FE08B1518F080E30E9440F58B2DF1
:10F030009927AA27BB2720E130E0AE014F5F5F4F41
:10F04000BC01CD010E944EFB0E9491F780E20E941C
:10F0500040F56401CC0EDD1EEBE0F0E0CE0EDF1ECD
:10F060008B2D99270E9491FB892B11F08B2D01C0CC
:10F070008EE2F6018083AA940894811C911CA7FE5D
:10F08000A6CF1B8ECE010B960E9491F78AE00E94BC
:10F0900040F5739487CFC801B7016E96DEBFCDBF30
:10F0A000DF91CF911F910F91FF90EF90DF90CF9064
:10F0B000BF90AF909F908F907F906F905F900895DA
:10F0C000982F80538A3028F0892F99270E94A1FB1E
:10F0D0008753282F3327C90108958F929F92AF92AB
:10F0E000BF92CF92DF92EF92FF920F931F93CF9335
:10F0F000DF93CDB7DEB72A97DEBFCDBF6C015B01D2
:10F10000842E1982FB01108211821282138203C0A5
:10F110000894C11CD11CF601E0800E2D1127C801F6
:10F120000E9486FB892B11F0EE2091F7EE2029F04A
:10F13000C8010E9498FB892B11F580E090E02AC05D
:10F14000F501E080F1800281138164E0EE0CFF1C88
:10F15000001F111F6A95D1F7892D0E9460F8992729
:10F16000AA27BB27E82AF92A0A2B1B2BF501E082E4
:10F17000F182028313838A940894C11CD11CF60186
:10F180009080892D99270E9498FB892B11F0882067
:10F19000B9F6C6012A96DEBFCDBFDF91CF911F9190
:10F1A0000F91FF90EF90DF90CF90BF90AF909F9026
:10F1B0008F9008958F929F92AF92BF92CF92DF92DD
:10F1C000EF92FF920F931F93CF93DF93CDB7DEB7EC
:10F1D000A697DEBFCDBF8824982C0E9446F78CE905
:10F1E00090EE9C01442737FD4095542FCA01B90188
:10F1F0000E944EF781E080930A018AE30E9440F565
:10F200000E9473F7FC0181918F01E82EFF24C70152
:10F210000E9486FB6C01C801C114D10499F7C70193
:10F220000E94A1FB5C01F82E99278434910509F412
:10F230006DC0853491059CF48A30910509F440C174
:10F240008B30910524F4892B09F43AC17BC18D30B0
:10F25000910509F435C1CF9709F4F8C073C1813520
:10F260009105A1F0823591054CF48534910509F49E
:10F27000C1C08634910509F485C064C18435910507
:10F2800071F08835910509F496C05CC110920A01AD
:10F29000F1E08F2E10921F0183E990EE55C1E5E158
:10F2A000EE2EF12CEC0EFD1E41E0B701C8010E94CC
:10F2B0006DF8009711F141E0BE016A5E7F4F0E9438
:10F2C0006DF841E0BE01695E7F4F0E946DF841E03C
:10F2D000BE01685E7F4F0E946DF841E0BE01675E2F
:10F2E0007F4F0E946DF841E0BE01665E7F4F0E9435
:10F2F0006DF8B701C6010E94C7F0C7010E943DF139
:10F30000BE016F5F7F4F0E94A9F136C07BE1E72EFF
:10F31000F12CEC0EFD1E41E0B701C8010E946DF812
:10F32000009711F141E0BE01645E7F4F0E946DF8CD
:10F3300041E0BE01635E7F4F0E946DF841E0BE0177
:10F34000625E7F4F0E946DF841E0BE01615E7F4FBB
:10F350000E946DF841E0BE01605E7F4F0E946DF833
:10F36000B601C7010E94C7F0C7010E946FF1BE013C
:10F370006F5F7F4F0E94C8F10E9491F78AE00E9460
:10F3800040F517C045E0BE016E5D7F4FC8010E9489
:10F390006DF8892B71F020E048E06AA17BA18CA177
:10F3A0009DA10E94B6F7DC01CB018AA39BA3ACA36D
:10F3B000BDA39A2CD2C044E0BE016E5D7F4FC80150
:10F3C0000E946DF8009709F43FC042E0BE016A5DFB
:10F3D0007F4F0E946DF8892B59F021E04EA16AA160
:10F3E0007BA18CA19DA10E94A0F721E0422F20C00B
:10F3F00021E01DC043E0BE016E5D7F4FC8010E9449
:10F400006DF8009709F142E0BE016A5D7F4F0E94EE
:10F410006DF8892B59F022E04EA16AA17BA18CA145
:10F420009DA10E94A0F722E041E002C022E048E056
:10F430006AA17BA18CA19DA10E94B6F7DC01CB0142
:10F440008AA39BA3ACA3BDA39F2C87C086EA90EEA2
:10F450009C01442737FD4095542FCA01B9010E94F1
:10F460004EF78FEB90EE9C01442737FD4095542FCB
:10F47000CA01B9010E944EF78CED90EE9C01442721
:10F4800037FD4095542FCA01B9010E944EF78CEF09
:10F4900090EE9C01442737FD4095542FCA01B901D5
:10F4A0000E944EF789E191EE9C01442737FD40957B
:10F4B000542FCA01B9010E944EF786E391EE44C071
:10F4C000892D99278634910551F1873491053CF4B3
:10F4D00084349105A9F08534910529F13EC0843525
:10F4E000910521F088359105E1F037C0CE014596B0
:10F4F0000E943DF1BE016F5F7F4F0E94A9F109C0DC
:10F50000CE014B960E946FF1BE016F5F7F4F0E944C
:10F51000C8F10E9491F78AE00E9440F51EC020E0E9
:10F5200003C021E001C022E048E06AA17BA18CA1D8
:10F530009DA10E94B6F7DC01CB018AA39BA3ACA3DB
:10F54000BDA30BC08CE890EE9C01442737FD40958D
:10F55000542FCA01B9010E944EF7882009F44DCEFC
:10F56000A696DEBFCDBFDF91CF911F910F91FF9087
:10F57000EF90DF90CF90BF90AF909F908F900895C5
:10F58000CFEFD0E1DEBFCDBFC0E00E94E7F10E9427
:10F59000FCF10E941CF20E9455F5482F80911A013F
:10F5A000842780931A012C2F33272430310509F446
:10F5B00048C02530310554F422303105A1F1233003
:10F5C0003105ACF52115310571F0E5CF2630310557
:10F5D00009F447C0263031050CF43FC0273031050F
:10F5E00009F456C0D8CF4B3161F480E292E0909399
:10F5F00007018093060130931C0120931B01C2E098
:10F60000CACF10921A01413259F480911F018F5FC5
:10F6100080931F01833009F0BECF0E94DAF8BBCF80
:10F6200010921F01B8CF40931001C3E0B4CF842FD4
:10F630009927982F882790931C0180931B01C4E081
:10F64000AACF80911B0190911C01840F911D909372
:10F650001C0180931B01C5E09ECF4E30E9F4C6E04B
:10F660009ACFE0910601F09107014193F0930701D1
:10F67000E093060180911B0190911C0101979093EA
:10F680001C0180931B01892B09F085CFC7E083CF34
:10F69000882311F40E94D0F6C0E07DCFF52FE42F2F
:10F6A000CF93FF93EF932230DCF02532CCF4C22FBE
:10F6B0002C2F332744275527FF93EF930E94BBFB42
:10F6C000EF91FF91605D6A330CF0695D6193622F89
:10F6D000732F842F952F605070408040904041F7E9
:10F6E00010828F919F91CF910C9476FBDC01FC01ED
:10F6F00001900020E9F73297AE17BF0730F47C91F4
:10F700006081708331976D93F7CF08959923F9F451
:10F710008032F9F08930E9F08B30C9F408958032F5
:10F72000B1F09923A1F4803294F08F3784F40895D6
:10F73000082E806281361CF087364CF40895802DA7
:10F7400013C08F9309D08F9109F08F7D0895992769
:10F750008827089585FDFBCF80629923C1F7813604
:10F76000B4F38B37A4F70895992389F780337CF39A
:10F770008A336CF70895A1E21A2EAA1BBB1BFD0168
:10F780000DC0AA1FBB1FEE1FFF1FA217B307E40780
:10F79000F50720F0A21BB30BE40BF50B661F771FD8
:10F7A000881F991F1A9469F76095709580959095B8
:0AF7B0009B01AC01BD01CF010895DB
:0AF7BA0051034E034C0320020060CF
:040000031000E00009
:00000001FF
