:100000000C942A000C9445000C9445000C94450077
:100010000C9445000C9445000C9445000C9445004C
:100020000C9445000C9445000C9445000C9445003C
:100030000C9445000C9445000C9445000C9445002C
:100040000C9445000C9445000C9445000C9445001C
:100050000C94450011241FBECFE5D8E0DEBFCDBF14
:1000600010E0A0E6B0E0EEE6F2E002C005900D92EE
:10007000A036B107D9F710E0A0E6B0E001C01D92AC
:10008000A036B107E1F70C94D0000C94000099273A
:1000900087FD90958630910509F441C08730910520
:1000A0008CF48230910559F1833091052CF400973E
:1000B00011F1019711F137C08430910521F10597B5
:1000C00024F51FC08930910531F18A30910534F44F
:1000D00087309105E1F00897E1F025C0823691055F
:1000E000F1F0833691051CF40A97D9F01CC08636CE
:1000F000910599F018C08FE315C086E013C08BE519
:1001000011C08FE40FC086E60DC08DE60BC087E0FE
:1001100009C08FE707C087E605C081E703C08CE709
:1001200001C080E888BB613019F4AB98AC9A08959F
:10013000623011F4AC98AB9A08950895CF93DF9391
:10014000CDB7DEB724970FB6F894DEBF0FBECDBF94
:100150009C0119821A8289819A8182179307B8F4C7
:100160001B821C828B819C818C52914030F48B814C
:100170009C8101968B839C83F5CF89819A8101961E
:1001800089839A8389819A818217930748F32496F9
:100190000FB6F894DEBF0FBECDBFDF91CF910895AB
:1001A000CFE5D8E0DEBFCDBF10E0C12FF12EE12EAC
:1001B0009FEF97BB84B3886184BBA598A298AA9A45
:1001C000AD9A91BB83B393B3947085FF02C099231A
:1001D00051F4FF2089F492E0F92ECF5FC03108F08E
:1001E000C3E01F5F09C0CC2339F0FF2029F48AE067
:1001F000F82EC1501F5F01C0F110FA941D300CF0B1
:1002000010E0812F6AE00E941E01082F812F6AE012
:100210000E941E0162E0892F0E94470081E0E826CB
:1002200011F012BA02C080E882BB61E0802F0E9408
:10023000470081E090E00E949E00C4CF87FB082E1B
:10024000062687FD819567FD619505D00EF4919591
:1002500007FC81950895991B79E004C0991F9617B2
:0E02600008F0961B881F7A95C9F780950895BF
:00000001FF
