:103800000C94341C0C944F1C0C944F1C0C944F1CA7
:103810000C944F1C0C944F1C0C944F1C0C944F1C7C
:103820000C944F1C0C944F1C0C944F1C0C944F1C6C
:103830000C944F1C0C944F1C0C944F1C0C944F1C5C
:103840000C944F1C0C944F1C0C94511C0C944F1C4A
:103850000C944F1C0C944F1C0C944F1C0C944F1C3C
:103860000C944F1C0C944F1C11241FBECFEFD4E0BE
:10387000DEBFCDBF11E0A0E0B1E0E6E9FCE302C0AD
:1038800005900D92A430B107D9F712E0A4E0B1E0A1
:1038900001C01D92A732B107E1F70C94AD1D0C9445
:1038A000001C1F920F920FB60F9211248F93EF936B
:1038B000FF938091C6008D3061F08A3051F0E09125
:1038C0002502F09126028193F0932602E0932502CF
:1038D00003C081E080938E01FF91EF918F910F9053
:1038E0000FBE0F901F901895CF93C82F8D3019F4ED
:1038F0008AE00E94741C8091C00085FFFCCFC093B9
:10390000C600CF9108958091C0008823E4F780918C
:10391000C600992708958A3318F48053992708958B
:10392000875399270895EF92FF921F93162F0E94B5
:103930008B1CE82EFF2484E0EE0CFF1C8A95E1F737
:10394000812F0E948B1C8E0D99271F91FF90EF9065
:1039500008954F925F926F927F928F929F92AF9253
:10396000BF92CF92DF92EF92FF920F931F93CF936C
:10397000DF93EC018991833509F091C089910E9410
:103980008B1CA82E8150833008F082C089916991E8
:103990000E94931C282F482E55246A2C7724C3019B
:1039A0008E5B9F4F8415950514F482E469C0B22E96
:1039B000EE24FF24870188249924899169910E942B
:1039C000931C102F0F2DFE2CEE24E80EF11C011D70
:1039D000111DB80E0894811C911C6814790468F7B5
:1039E000C2018619970988249924029709F43BC0DB
:1039F0004CE0C42E41E0D42ECE0CDF1C870189910F
:103A000069910E94931CF82EB80E899169910E94C9
:103A1000931CB80E20910401213061F49927982F4E
:103A200088278F0D911D0C01F80120935700E89510
:103A3000112403C0F601F08281838091000182503D
:103A4000809300018823D9F082E090E0880E991ECF
:103A5000080F191FC80ED91EC201861997090297AF
:103A60008816990660F299918881682F892F0E94A3
:103A7000931CB80E9FEFB91641F083E401C080E5B6
:103A80000E94741C80E090E057C08EE20E94741C7B
:103A90008A2D8750833018F481E08093050180914E
:103AA0000001823029F080910501813009F042C087
:103AB000809104018130C9F483E0209106013091A6
:103AC0000701F90180935700E89507B600FCFDCF88
:103AD00085E0F90180935700E89507B600FCFDCF1B
:103AE00081E180935700E8950EC0823061F4F99926
:103AF000FECFECE0F1E0A0910601B091070180E873
:103B0000182E0E943A1E82E88093000180910601DF
:103B100090910701A0910801B091090180589F4F31
:103B2000AF4FBF4F8093060190930701A093080108
:103B3000B093090181E090E0DF91CF911F910F9147
:103B4000FF90EF90DF90CF90BF90AF909F908F90BD
:103B50007F906F905F904F900895CFEFD4E0DEBFDD
:103B6000CDBFE0E0F0E090E081E085BF95BF9093AD
:103B7000C50089E08093C40088E98093C10086E095
:103B80008093C2008091C00087FF05C08091C6006D
:103B9000893609F491E03197A9F784918F3F49F074
:103BA000992339F49093C100E0910A01F0910B013F
:103BB00009958DE00E94741C8EE30E94741C0E9483
:103BC000831C863621F40E94741C81E005C0853672
:103BD00031F40E94741C82E08093040109C087368E
:103BE00039F40E94741CE0910A01F0910B010995CF
:103BF00080910401882319F381E085BF82E085BFAD
:103C00008DE00E94741C10928E01CFE8D1E0D09319
:103C10002602C0932502789480918E018823E1F3D7
:103C2000F8948FE891E00E94A91C882341F48DE06C
:103C30000E94741CE0910101F091020109958091AC
:103C40000501882379F08FE40E94741C8BE40E94A4
:103C5000741C8091C00085FFFCCFE0910101F091C0
:103C60000201099510928E01D0932602C09325027D
:103C70007894D2CF019003D01A94E1F70895F9997E
:103C8000FECFB2BDA1BD00BC11960FB6F894FA9A52
:063C9000F99A0FBE089531
:043C96008200380070
:0400000300003800C1
:00000001FF
