:100000000C942A000C9445000C9445000C94450077
:100010000C9445000C9445000C9445000C9445004C
:100020000C9445000C9445000C9445000C9445003C
:100030000C9445000C9445000C9445000C9445002C
:100040000C9445000C9445000C9445000C9445001C
:100050000C94450011241FBECFE5D8E0DEBFCDBF14
:1000600010E0A0E6B0E0E4EDF0E002C005900D92F3
:10007000A036B107D9F710E0A0E6B0E001C01D92AC
:10008000A036B107E1F70C9463000C940000962FA2
:1000900021E0982B892F9927853291052CF4813204
:1000A00091056CF4419708C0813391053CF085338C
:1000B00091052CF081549040049708F020E0822FA5
:1000C000992708950895CFE5D8E0DEBFCDBF0C9401
:0400D0006900FFCFF5
:00000001FF
