:020000020000FC
:040000000C941A1C26
:1038000019C00F931F93CF93DF93A0E0B0E0C1E204
:10381000D0E11191B12718E0AA0FBB1F10F4AC271B
:10382000BD271A95C9F70A95A1F7DF91CF911F918E
:103830000F9108950FE50DBF04E00EBF00270FBDE7
:1038400005E00EBD00E000BD07E609B900270BB991
:1038500008E10AB906E800BD03E40CB944D041E030
:1038600051E000C05F9909C047D0E1F74A9509F4DB
:103870004CC005E10CB937D0F5CF0CB1013041F0A7
:10388000043081F706E00CB92ED036D0F1F73DC0F8
:1038900045E0A0E6B0E027D000C05F9906C02CD07C
:1038A000E1F705E10CB91FD0DDCF1DD00CB10D93B0
:1038B000A43E99F702E8E2E6F0E0A3DFAB2B89F73C
:1038C00000916000051751F00395051304C006E050
:1038D0000CB909D0C7CF08E10CB917C0539506E061
:1038E0000CB901D0BFCF0F9302EC0DBD07EF0CBD9B
:1038F00004E008BF0F9108950F931F9308B714E0D9
:10390000012301271F910F910895EE27FF270994A6
:00000001FF
