:100000000C942A000C9445000C9445000C94450077
:100010000C9445000C9445000C9445000C9445004C
:100020000C9445000C9445000C9445000C9445003C
:100030000C9445000C9445000C9445000C9445002C
:100040000C9445000C9445000C9445000C9445001C
:100050000C94450011241FBECFE5D8E0DEBFCDBF14
:1000600010E0A0E6B0E0ECEDF1E002C005900D92EA
:10007000A036B107D9F710E0A0E6B0E001C01D92AC
:10008000A036B107E1F70C94C8000C940000992742
:1000900087FD90958630910509F441C08730910520
:1000A0008CF48230910559F1833091052CF400973E
:1000B00011F1019711F137C08430910521F10597B5
:1000C00024F51FC08930910531F18A30910534F44F
:1000D00087309105E1F00897E1F025C0823691055F
:1000E000F1F0833691051CF40A97D9F01CC08636CE
:1000F000910599F018C08FE315C086E013C08BE519
:1001000011C08FE40FC086E60DC08DE60BC087E0FE
:1001100009C08FE707C087E605C081E703C08CE709
:1001200001C080E888BBAB98AC9A0895CF93DF9369
:10013000CDB7DEB724970FB6F894DEBF0FBECDBFA4
:100140009C0119821A8289819A8182179307B8F4D7
:100150001B821C828B819C81885B9B4030F48B814D
:100160009C8101968B839C83F5CF89819A8101962E
:1001700089839A8389819A818217930748F3249609
:100180000FB6F894DEBF0FBECDBFDF91CF910895BB
:10019000CFE5D8E0DEBFCDBF10E08FEF87BB84B3E3
:1001A000886184BBA598A298AD9AAA9AC3B3C0727D
:1001B0009A9907C084E690E00E94960019300CF4EA
:1001C0001F5FCC2339F484E690E00E94960011165C
:0C01D0000CF41150812F0E944700E8CF72
:00000001FF
