:020000021000EC
:10F800000C9446FC0C9463FC0C9463FC0C9463FC19
:10F810000C9463FC0C9463FC0C9463FC0C9463FCEC
:10F820000C9463FC0C9463FC0C9463FC0C9463FCDC
:10F830000C9463FC0C9463FC0C9463FC0C9463FCCC
:10F840000C9463FC0C9463FC0C9465FC0C9463FCBA
:10F850000C9463FC0C9463FC0C9463FC0C9463FCAC
:10F860000C9463FC0C9463FC0C9463FC0C9463FC9C
:10F870000C9463FC0C9463FC0C9463FC0C9463FC8C
:10F880000C9463FC0C9463FC0C9463FC11241FBE69
:10F89000CFEFD0E1DEBFCDBF11E0A0E0B1E0E4EFFB
:10F8A000FCEF01E00BBF02C007900D92A430B1073E
:10F8B000D9F712E0A4E0B1E001C01D92A73AB10768
:10F8C000E1F70C94E4FD0C9400FC1F920F920FB62C
:10F8D0000F9211248F93EF93FF938CB18D3061F0D1
:10F8E0008A3051F0E091A502F091A6028193F09345
:10F8F000A602E093A50203C081E080930E02FF916F
:10F90000EF918F910F900FBE0F901F901895CF938E
:10F91000C82F8D3019F48AE00E9487FC5D9BFECFD2
:10F92000CCB9CF9108955F9BFECF8CB199270895F4
:10F930008A3318F480539927089587539927089597
:10F94000EF92FF921F93162F0E9498FCE82EFF243F
:10F9500084E0EE0CFF1C8A95E1F7812F0E9498FC51
:10F960008E0D99271F91FF90EF9008952F923F924F
:10F970004F925F926F927F928F929F92AF92BF92BF
:10F98000CF92DF92EF92FF920F931F93CF93DF936B
:10F99000FC018191833509F0AAC081918F010E94F9
:10F9A00098FC682E8150833008F09AC0F80181914C
:10F9B00061918F010E94A0FC282F282E3324462C11
:10F9C0005524C2018E5B9F4F8215930514F482E487
:10F9D0007AC0722EAA24BB24650188249924F801D8
:10F9E000819161918F010E94A0FCDC2CCB2CBA2C60
:10F9F000AA24A80EB11CC11CD11C780E0894811C2D
:10FA0000911C4814590458F7C10184199509882498
:10FA10009924029709F44BC06CE0E62E61E0F62EC3
:10FA2000EA0CFB1CF801819161918F010E94A0FCFE
:10FA3000C82F780EF801819161918F010E94A0FC7E
:10FA4000282F780E409104014130A9F4C401AA275F
:10FA5000BB278A0D9B1DAC1DBD1D3327322F2227CE
:10FA60002C0F311D0901FC01A0935B00409368003D
:10FA7000E895112403C0F701C0838183C091000180
:10FA8000D09101012297D0930101C09300012097EA
:10FA9000F9F082E090E0880E991EE80EF91EC1018F
:10FAA0008419950902978816990608F4BBCFF801C6
:10FAB00091918081682F892F0E94A0FC780EFFEF22
:10FAC0007F1659F083E40E9487FC80E090E069C0D3
:10FAD00080E50E9487FCCE0164C08EE20E9487FC14
:10FAE000862D8750833018F481E080930501809142
:10FAF000000190910101029729F080910501813068
:10FB000009F04DC080910401813019F583E0209106
:10FB10000601309107014091080150910901F90156
:10FB200040935B0080936800E8958091680080FDB9
:10FB3000FCCF85E0F90140935B0080936800E89575
:10FB40008091680080FDFCCF81E180936800E8959A
:10FB50000CC0823051F4E199FECFECE0F1E0A091CD
:10FB60000601B09107010E9469FE82E091E0909346
:10FB70000101809300018091060190910701A091FD
:10FB80000801B091090180509F4FAF4FBF4F809344
:10FB9000060190930701A0930801B093090181E049
:10FBA00090E0DF91CF911F910F91FF90EF90DF9048
:10FBB000CF90BF90AF909F908F907F906F905F900D
:10FBC0004F903F902F900895CFEFD0E1DEBFCDBF93
:10FBD000E0E0F0E090E081E085BF95BF9093900079
:10FBE00087E089B988E98AB986E0809395005F9BB0
:10FBF00004C08CB1893609F491E03197C1F7849142
:10FC00008F3F41F0992331F49AB9E0910A01F091C4
:10FC10000B0109958DE00E9487FC8EE30E9487FC12
:10FC20000E9493FC863621F40E9487FC81E005C087
:10FC3000853631F40E9487FC82E08093040109C07C
:10FC4000873639F40E9487FCE0910A01F0910B019C
:10FC5000099580910401882319F381E085BF82E032
:10FC600085BF8DE00E9487FC10920E02CFE0D2E0AB
:10FC7000D093A602C093A502789480910E028823A7
:10FC8000E1F3F8948FE092E00E94B6FC882341F4FF
:10FC90008DE00E9487FCE0910201F091030109953B
:10FCA00080910501882369F08FE40E9487FC8BE432
:10FCB0000E9487FC5D9BFECFE0910201F091030161
:10FCC000099510920E02D093A602C093A5027894D3
:10FCD000D4CF019003D01A94E1F70895E199FECFB3
:10FCE000BFBBAEBB0DBA11960FB6F894E29AE19A7B
:04FCF0000FBE0895A6
:04FCF400020100F811
:040000031000F800F1
:00000001FF
