:107800000C942A3C0C94453C0C94453C0C94453C0F
:107810000C94453C0C94453C0C94453C0C94453CE4
:107820000C94453C0C94453C0C94453C0C94453CD4
:107830000C94453C0C94453C0C94453C0C94453CC4
:107840000C94453C0C94453C0C94453C0C94453CB4
:107850000C94453C11241FBECFE5D8E0DEBFCDBF60
:1078600010E0A0E6B0E0EAEEFEE702C005900D925F
:10787000A036B107D9F711E0A0E6B0E001C01D9233
:10788000A43AB107E1F70C94383F0C94003C0F92F6
:10789000AF93BF93CF93DF93EF93FF93FC01EA0184
:1078A000DB01C895099231961197D9F7FF91EF91B5
:1078B000DF91CF91BF91AF910F9008950F921F92DA
:1078C0000F93AF93BF93CF93DF93EF93FF93FC019D
:1078D000EA01DB010990199001E043D0329612973A
:1078E000C9F7FC0103E03DD005E03BD0FF91EF91EB
:1078F000DF91CF91BF91AF910F911F900F9008959D
:107900000F931F93EF93FF93FC0103E02AD000E84D
:1079100010E0E00FF11FE617F707B9F7FF91EF91BD
:107920001F910F9108950F930F9222D0082E09E016
:1079300018D00F900F9108950F930F92EF93FF932C
:1079400017D0FC0160935700C895802DFF91EF91EF
:107950000F900F9108950F930BD001E102D00F917A
:107960000895E199FECF00935700E895FFFF0000CE
:107970000091570000FDFCCF089588E089B98AB1D5
:1079800088618AB908958AB1877E8AB908958CB9C9
:107990005E9BFECF5E9A08958CB1992708958BB1B6
:1079A0009927807890700895EF92FF920F931F931C
:1079B000CF93DF937B01C0E0D0E0C617D70770F408
:1079C0008C010E94CF3C8823E1F30E94CC3CF8015B
:1079D00081938F012196CE15DF0598F381E090E029
:1079E000DF91CF911F910F91FF90EF900895EF924B
:1079F000FF920F931F93CF93DF937C018B01C0E025
:107A0000D0E0C017D10738F4F70181917F010E94BF
:107A1000C73C2196F6CF81E090E0DF91CF911F9196
:107A20000F91FF90EF90089540E050E048175907FC
:107A300050F42FEC37E000002150304037FFFBCFEF
:107A40004F5F5F4FF3CF08950E94C33C0E94000038
:107A500008950E94CF3C8823E1F30E94CC3C803201
:107A600019F481E090E0089585E10E94C73C80E030
:107A700090E0089590E0282F33272138310589F0D0
:107A80002238310524F42038310549F00DC0223860
:107A9000310549F02839310539F493E005C092E009
:107AA00003C091E001C092E1892F9927089540E039
:107AB00050E06091A0007091A10046175707D0F4E4
:107AC0002091A2013091A301E2EAF0E03FBB2EBB7E
:107AD0002F5F3F4F80818DBBE29AE19AE199FECF03
:107AE0004F5F5F4F31964617570780F33093A301DE
:107AF0002093A201089540E050E06091A0007091B1
:107B0000A10046175707B0F42091A2013091A301BC
:107B1000E2EAF0E03FBB2EBB2F5F3F4FE09A8DB310
:107B200081934F5F5F4F46175707A0F33093A30130
:107B30002093A2010895CF93DF93C0E0D0E080911D
:107B4000A0009091A100C817D907A0F4CE018E55CE
:107B50009F4F2091A2013091A301220F331FAC014E
:107B600060E870E0C9018C0F9D1F0E945E3CC05808
:107B7000DF4FE5CF0E94AB3CDF91CF91089580911C
:107B8000A2019091A30142EA50E06091A00070919F
:107B9000A100880F991F0E94473C0895CF93C0E031
:107BA00069E081E090E00E949C3C992784FF03C03B
:107BB0008F7E0E94933C0E94CF3C8823E1F30E9479
:107BC000CC3C9927823591051CF5803591050CF048
:107BD0005CC08134910509F462C0823491057CF463
:107BE00081339105B1F18233910524F4C09709F4F2
:107BF0004CC038C18034910509F438C133C1823496
:107C0000910509F45FC08534910509F45EC02AC16D
:107C10008635910509F4F1C0873591054CF482351C
:107C2000910509F45FC08535910509F469C01AC151
:107C30008437910509F4A4C0853791052CF4843666
:107C4000910509F476C00EC18537910509F4C5C0C8
:107C500009C10E94293D882309F4ADCF84E10E9427
:107C6000C73C81E40E94C73C86E50E94C73C82E590
:107C70000E94C73C80E20E94C73C83E50E94C73C4B
:107C800084E50E94C73C8BE406C00E94293D8823FE
:107C900009F491CF84E10E94C73C80E1E4C061E037
:107CA00070E080E690E00E94D43C0E94293D882349
:107CB00009F481CF84E10E94C73C809160000E945A
:107CC0003A3DE9CF64E170E008C061E070E080E631
:107CD00090E00E94D43C64E070E080E690E00E9476
:107CE000D43CD3CF0E94293D882309F464CF60E0BF
:107CF00070E880E090E00E94803C0E94AB3CCACFDC
:107D000062E070E080E690E00E94D43C0E94293D51
:107D1000882309F450CF2091600080916100992759
:107D2000982F8827820F911D9093A3018093A20121
:107D3000B1CF63E070E080E690E00E94D43C2091F7
:107D40006100809160009927982F8827820F911DEC
:107D50009093A1008093A000BC0182EA90E00E9471
:107D6000D43C0E94293D882309F425CF80916200EC
:107D7000863419F40E949B3D8DCF0E94573D8ACFD7
:107D800063E070E080E690E00E94D43C20916100C6
:107D9000809160009927982F8827820F911D9093DA
:107DA000A1008093A0000E94293D882309F403CFFD
:107DB00080916200863419F40E94BF3D02C00E9487
:107DC0007B3D84E10E94C73C6091A0007091A100BE
:107DD00082EA90E00E94F73C60CF0E94293D882310
:107DE00009F4E9CE84E10E94C73C8EE10E94C73CC1
:107DF00085E90E94C73C82E04ECF64E070E080E6F7
:107E000090E00E94D43C0E94293D882309F4D3CEFF
:107E100084E10E94C73C80916000803531F48091FC
:107E20006100882361F4C82F17C0883531F4809130
:107E30006100883061F4C3E00FC0803531F4809177
:107E40006100883049F4C2E007C0883529F4809188
:107E50006100882309F4C1E069E08C2F99270E9412
:107E60009C3C19CF85E10E94C73CA5CECF910895D7
:107E7000CFE5D8E0DEBFCDBFCEE1F894AEEFB3E002
:107E80000E946C3F802D843B71F4AFEFB3E00E9401
:107E90006C3F802D833C39F4ADEFB3E00E946C3F22
:107EA000802D992781BF0E94BD3C0E94CC3C84E676
:107EB00090E00E94143D0E94CF3C882319F00E945C
:107EC000CE3D04C0C150C8BBCC2389F70E94243DDD
:107ED00080E090E00C94743FE199FECFBFBBAEBB55
:0A7EE000E09A11960DB20895FFCF4D
:040000030000780081
:00000001FF
