:107000000C942A380C9445380C9445380C94453827
:107010000C9445380C9445380C9445380C944538FC
:107020000C9445380C9445380C9445380C944538EC
:107030000C9445380C9445380C9445380C944538DC
:107040000C9445380C9445380C9445380C944538CC
:107050000C94453811241FBECFE5D8E0DEBFCDBF6C
:1070600010E0A0E6B0E0E4EBF5E702C005900D9279
:10707000A036B107D9F710E0A0E6B0E001C01D923C
:10708000A73EB107E1F70C9487390C94003881E4EE
:107090000E94AA3A86E50E94AA3A82E50E94AA3A8C
:1070A00082E40E94AA3A8FE40E94AA3A8FE40E94E6
:1070B000AA3A84E50E94AA3A08958FEF87BB84B369
:1070C000886184BB8B98A298939AAA9A089588BBEA
:1070D000613019F4AB98AC9A0895623011F4AC9811
:1070E000AB9A08950895BF92CF92DF92EF92FF92EC
:1070F0000F931F93CF93DF938C01B62E20E030E0E7
:10710000E901CE59DF4F79010894E11CF11C2017E9
:10711000310718F40E94BF3A01C08FEF88839701AE
:107120002038310568F320E030E0C090E200D090D4
:10713000E300E090E400F090E5008CB39927969589
:107140008795AC014170507080FDF7CF8091E600CB
:10715000833709F07FC086E4B81609F039C041E0F2
:10716000C2E6D0E08991282F332789919927982F5B
:107170008827282B392B8091E2009091E3000901A8
:10718000FC0140935700E89511248091E200909112
:10719000E300A091E400B091E5000296A11DB11DAD
:1071A0008093E2009093E300A093E400B093E500A5
:1071B00002501040B9F685E0F60180935700E8953B
:1071C00007B600FCFDCF81E180935700E8953FC0F2
:1071D00085E4B816E1F58091E2009091E300A0917A
:1071E000E400B091E500B695A795979587958093B3
:1071F000E2009093E300A093E400B093E500F9016E
:10720000EF59FF4F8091E2008EBB8091E200909198
:10721000E300A091E400B091E500292F3A2F4B2F15
:1072200055272FBB0196A11DB11D8093E2009093BD
:10723000E300A093E400B093E500319680818DBB1C
:10724000E29AE19AE199FECF01501040D9F68DE023
:1072500090E001C0CA01DF91CF911F910F91FF9083
:10726000EF90DF90CF90BF9008950F931F93CF932F
:10727000DF93EC01E199FECF653411F58091E200D6
:107280008EBB8091E2009091E300A091E400B09168
:10729000E500292F3A2F4B2F55272FBB0196A11D13
:1072A000B11D8093E2009093E300A093E400B093BB
:1072B000E500E09A8DB30E94AA3A2197F9F622C020
:1072C000E091E200F091E30005911491802F0E947B
:1072D000AA3A812F99270E94AA3A8091E2009091C0
:1072E000E300A091E400B091E5000296A11DB11D5C
:1072F0008093E2009093E300A093E400B093E50054
:107300002297F1F6DF91CF911F910F910895CFE56C
:10731000D8E0DEBFCDBFF89401E005BF82E085BFB5
:1073200060E083E390E00E94A03A0E945D3880B361
:1073300093B383FF0BC005BF15BE602F83E70E9488
:107340006738E0916000F0916100099561E08CE799
:107350000E9467380E94BF3A682F813611F489E590
:10736000ECC0813439F50E94BF3A9927AA27BB2780
:107370008093E2009093E300A093E400B093E500D3
:10738000EE24F82E092F1A2F0E94BF3A9927AA2718
:10739000BB27E82AF92A0A2B1B2BEE0CFF1C001F27
:1073A000111FE092E200F092E3000093E4001093DA
:1073B000E50068C0823641F489E50E94AA3A80E07F
:1073C0000E94AA3A80E8B9C0823489F40E94BF3A88
:1073D0009927182F00270E94BF3A9927082B192BAD
:1073E0000E94BF3A682FC8010E947338A6C0873632
:1073F00089F40E94BF3A9927182F00270E94BF3AAC
:107400009927082B192B0E94BF3A682FC8010E94A8
:1074100035399CCF853609F037C08091E600833737
:1074200069F51092E2001092E3001092E4001092CD
:10743000E50023E08091E2009091E300FC012093BD
:107440005700E89507B600FCFDCF8091E2009091CF
:10745000E300A091E400B091E50080589F4FAF4F4A
:10746000BF4F8093E2009093E300A093E400B093B9
:10747000E50080509047A040B040E0F281E1809369
:107480005700E8958DE059C0853439F48DE00E94AD
:10749000AA3A81E085BF15BE54CF803599F38C346C
:1074A00089F3803711F483E548C0863421F469E01C
:1074B00080E090E005C0823731F469E081E090E03F
:1074C0000E94D33A3AC08E3421F469E083E090E020
:1074D000F7CF813521F469E082E090E0F1CF843785
:1074E00029F483E70E94AA3A80E027C088578230B7
:1074F00018F40E94BF3AC6CF643529F40E94BF3AFF
:107500008093E600BFCF633519F40E9447381ECF41
:10751000663529F480E30E94AA3A87E30EC06337F8
:1075200041F482E00E94AA3A85E90E94AA3A8EE1DB
:1075300004C06B3109F40ACF8FE30E94AA3A06CF48
:107540009C01832F992780BD29B988E18AB986E8F3
:1075500080BD089520E030E08CB90FB607FE0BC067
:107560005E990BC02F5F3F4F5E9907C087E22031C5
:107570003807C4F302C05E9BFECF5E9A089580E098
:1075800090E00FB607FE0AC05F990AC001965F99A6
:1075900007C027E280319207CCF302C05F9BFECF89
:1075A0008CB199270895FC0160935700C895802DF0
:0475B000992708957A
:040000030000700089
:00000001FF
